{
  "fileName": "DXswapFactory.sol",
  "contractName": "DXswapFactory",
  "source": "pragma solidity =0.5.16;\n\nimport './interfaces/IDXswapFactory.sol';\nimport './DXswapPair.sol';\n\ncontract DXswapFactory is IDXswapFactory {\n    address public feeTo;\n    address public feeToSetter;\n    uint8 public protocolFeeDenominator = 5; // uses 0.05% (1/~6 of 0.30%) per trade as default\n    bytes32 public constant INIT_CODE_PAIR_HASH = keccak256(abi.encodePacked(type(DXswapPair).creationCode));\n\n    mapping(address => mapping(address => address)) public getPair;\n    address[] public allPairs;\n\n    event PairCreated(address indexed token0, address indexed token1, address pair, uint);\n\n    constructor(address _feeToSetter) public {\n        feeToSetter = _feeToSetter;\n    }\n\n    function allPairsLength() external view returns (uint) {\n        return allPairs.length;\n    }\n    function createPair(address tokenA, address tokenB) external returns (address pair) {\n        require(tokenA != tokenB, 'DXswapFactory: IDENTICAL_ADDRESSES');\n        (address token0, address token1) = tokenA < tokenB ? (tokenA, tokenB) : (tokenB, tokenA);\n        require(token0 != address(0), 'DXswapFactory: ZERO_ADDRESS');\n        require(getPair[token0][token1] == address(0), 'DXswapFactory: PAIR_EXISTS'); // single check is sufficient\n        bytes memory bytecode = type(DXswapPair).creationCode;\n        bytes32 salt = keccak256(abi.encodePacked(token0, token1));\n        assembly {\n            pair := create2(0, add(bytecode, 32), mload(bytecode), salt)\n        }\n        IDXswapPair(pair).initialize(token0, token1);\n        getPair[token0][token1] = pair;\n        getPair[token1][token0] = pair; // populate mapping in the reverse direction\n        allPairs.push(pair);\n        emit PairCreated(token0, token1, pair, allPairs.length);\n    }\n\n    function setFeeTo(address _feeTo) external {\n        require(msg.sender == feeToSetter, 'DXswapFactory: FORBIDDEN');\n        feeTo = _feeTo;\n    }\n\n    function setFeeToSetter(address _feeToSetter) external {\n        require(msg.sender == feeToSetter, 'DXswapFactory: FORBIDDEN');\n        feeToSetter = _feeToSetter;\n    }\n    \n    function setProtocolFee(uint8 _protocolFeeDenominator) external {\n        require(msg.sender == feeToSetter, 'DXswapFactory: FORBIDDEN');\n        require(_protocolFeeDenominator > 0, 'DXswapFactory: FORBIDDEN_FEE');\n        protocolFeeDenominator = _protocolFeeDenominator;\n    }\n    \n    function setSwapFee(address _pair, uint8 _swapFee) external {\n        require(msg.sender == feeToSetter, 'DXswapFactory: FORBIDDEN');\n        IDXswapPair(_pair).setSwapFee(_swapFee);\n    }\n}\n",
  "sourcePath": "contracts/DXswapFactory.sol",
  "abi": [
    {
      "inputs": [
        {
          "internalType": "address",
          "name": "_feeToSetter",
          "type": "address"
        }
      ],
      "payable": false,
      "stateMutability": "nonpayable",
      "type": "constructor"
    },
    {
      "anonymous": false,
      "inputs": [
        {
          "indexed": true,
          "internalType": "address",
          "name": "token0",
          "type": "address"
        },
        {
          "indexed": true,
          "internalType": "address",
          "name": "token1",
          "type": "address"
        },
        {
          "indexed": false,
          "internalType": "address",
          "name": "pair",
          "type": "address"
        },
        {
          "indexed": false,
          "internalType": "uint256",
          "name": "",
          "type": "uint256"
        }
      ],
      "name": "PairCreated",
      "type": "event"
    },
    {
      "constant": true,
      "inputs": [],
      "name": "INIT_CODE_PAIR_HASH",
      "outputs": [
        {
          "internalType": "bytes32",
          "name": "",
          "type": "bytes32"
        }
      ],
      "payable": false,
      "stateMutability": "view",
      "type": "function"
    },
    {
      "constant": true,
      "inputs": [
        {
          "internalType": "uint256",
          "name": "",
          "type": "uint256"
        }
      ],
      "name": "allPairs",
      "outputs": [
        {
          "internalType": "address",
          "name": "",
          "type": "address"
        }
      ],
      "payable": false,
      "stateMutability": "view",
      "type": "function"
    },
    {
      "constant": true,
      "inputs": [],
      "name": "allPairsLength",
      "outputs": [
        {
          "internalType": "uint256",
          "name": "",
          "type": "uint256"
        }
      ],
      "payable": false,
      "stateMutability": "view",
      "type": "function"
    },
    {
      "constant": false,
      "inputs": [
        {
          "internalType": "address",
          "name": "tokenA",
          "type": "address"
        },
        {
          "internalType": "address",
          "name": "tokenB",
          "type": "address"
        }
      ],
      "name": "createPair",
      "outputs": [
        {
          "internalType": "address",
          "name": "pair",
          "type": "address"
        }
      ],
      "payable": false,
      "stateMutability": "nonpayable",
      "type": "function"
    },
    {
      "constant": true,
      "inputs": [],
      "name": "feeTo",
      "outputs": [
        {
          "internalType": "address",
          "name": "",
          "type": "address"
        }
      ],
      "payable": false,
      "stateMutability": "view",
      "type": "function"
    },
    {
      "constant": true,
      "inputs": [],
      "name": "feeToSetter",
      "outputs": [
        {
          "internalType": "address",
          "name": "",
          "type": "address"
        }
      ],
      "payable": false,
      "stateMutability": "view",
      "type": "function"
    },
    {
      "constant": true,
      "inputs": [
        {
          "internalType": "address",
          "name": "",
          "type": "address"
        },
        {
          "internalType": "address",
          "name": "",
          "type": "address"
        }
      ],
      "name": "getPair",
      "outputs": [
        {
          "internalType": "address",
          "name": "",
          "type": "address"
        }
      ],
      "payable": false,
      "stateMutability": "view",
      "type": "function"
    },
    {
      "constant": true,
      "inputs": [],
      "name": "protocolFeeDenominator",
      "outputs": [
        {
          "internalType": "uint8",
          "name": "",
          "type": "uint8"
        }
      ],
      "payable": false,
      "stateMutability": "view",
      "type": "function"
    },
    {
      "constant": false,
      "inputs": [
        {
          "internalType": "address",
          "name": "_feeTo",
          "type": "address"
        }
      ],
      "name": "setFeeTo",
      "outputs": [],
      "payable": false,
      "stateMutability": "nonpayable",
      "type": "function"
    },
    {
      "constant": false,
      "inputs": [
        {
          "internalType": "address",
          "name": "_feeToSetter",
          "type": "address"
        }
      ],
      "name": "setFeeToSetter",
      "outputs": [],
      "payable": false,
      "stateMutability": "nonpayable",
      "type": "function"
    },
    {
      "constant": false,
      "inputs": [
        {
          "internalType": "uint8",
          "name": "_protocolFeeDenominator",
          "type": "uint8"
        }
      ],
      "name": "setProtocolFee",
      "outputs": [],
      "payable": false,
      "stateMutability": "nonpayable",
      "type": "function"
    },
    {
      "constant": false,
      "inputs": [
        {
          "internalType": "address",
          "name": "_pair",
          "type": "address"
        },
        {
          "internalType": "uint8",
          "name": "_swapFee",
          "type": "uint8"
        }
      ],
      "name": "setSwapFee",
      "outputs": [],
      "payable": false,
      "stateMutability": "nonpayable",
      "type": "function"
    }
  ],
  "bytecode": "0x60806040526001805460ff60a01b1916600560a01b17905534801561002357600080fd5b50604051612f73380380612f738339818101604052602081101561004657600080fd5b5051600180546001600160a01b0319166001600160a01b03909216919091179055612efd806100766000396000f3fe608060405234801561001057600080fd5b50600436106100b45760003560e01c8063574f2ba311610071578063574f2ba3146101715780635855a25a1461018b578063a2e74af614610193578063c9c65396146101b9578063e6a43905146101e7578063f46901ed14610215576100b4565b8063017e7e58146100b9578063094b7415146100dd5780631519c024146100e55780631e3dd18b146101165780632ff7042a146101335780634e91f81114610151575b600080fd5b6100c161023b565b604080516001600160a01b039092168252519081900360200190f35b6100c161024a565b610114600480360360408110156100fb57600080fd5b5080356001600160a01b0316906020013560ff16610259565b005b6100c16004803603602081101561012c57600080fd5b5035610319565b61013b610340565b6040805160ff9092168252519081900360200190f35b6101146004803603602081101561016757600080fd5b503560ff16610350565b610179610422565b60408051918252519081900360200190f35b610179610428565b610114600480360360208110156101a957600080fd5b50356001600160a01b03166104bb565b6100c1600480360360408110156101cf57600080fd5b506001600160a01b0381358116916020013516610537565b6100c1600480360360408110156101fd57600080fd5b506001600160a01b0381358116916020013516610859565b6101146004803603602081101561022b57600080fd5b50356001600160a01b031661087f565b6000546001600160a01b031681565b6001546001600160a01b031681565b6001546001600160a01b031633146102b3576040805162461bcd60e51b8152602060048201526018602482015277222c39bbb0b82330b1ba37b93c9d102327a92124a22222a760411b604482015290519081900360640190fd5b6040805163649d222f60e01b815260ff8316600482015290516001600160a01b0384169163649d222f91602480830192600092919082900301818387803b1580156102fd57600080fd5b505af1158015610311573d6000803e3d6000fd5b505050505050565b6003818154811061032657fe5b6000918252602090912001546001600160a01b0316905081565b600154600160a01b900460ff1681565b6001546001600160a01b031633146103aa576040805162461bcd60e51b8152602060048201526018602482015277222c39bbb0b82330b1ba37b93c9d102327a92124a22222a760411b604482015290519081900360640190fd5b60008160ff1611610402576040805162461bcd60e51b815260206004820152601c60248201527f445873776170466163746f72793a20464f5242494444454e5f46454500000000604482015290519081900360640190fd5b6001805460ff909216600160a01b0260ff60a01b19909216919091179055565b60035490565b604051610437602082016108fb565b6020820181038252601f19601f820116604052506040516020018082805190602001908083835b6020831061047d5780518252601f19909201916020918201910161045e565b6001836020036101000a0380198251168184511680821785525050505050509050019150506040516020818303038152906040528051906020012081565b6001546001600160a01b03163314610515576040805162461bcd60e51b8152602060048201526018602482015277222c39bbb0b82330b1ba37b93c9d102327a92124a22222a760411b604482015290519081900360640190fd5b600180546001600160a01b0319166001600160a01b0392909216919091179055565b6000816001600160a01b0316836001600160a01b0316141561058a5760405162461bcd60e51b8152600401808060200182810382526022815260200180612ea76022913960400191505060405180910390fd5b600080836001600160a01b0316856001600160a01b0316106105ad5783856105b0565b84845b90925090506001600160a01b038216610610576040805162461bcd60e51b815260206004820152601b60248201527f445873776170466163746f72793a205a45524f5f414444524553530000000000604482015290519081900360640190fd5b6001600160a01b0382811660009081526002602090815260408083208585168452909152902054161561068a576040805162461bcd60e51b815260206004820152601a60248201527f445873776170466163746f72793a20504149525f455849535453000000000000604482015290519081900360640190fd5b60606040518060200161069c906108fb565b6020820181038252601f19601f8201166040525090506000838360405160200180836001600160a01b03166001600160a01b031660601b8152601401826001600160a01b03166001600160a01b031660601b815260140192505050604051602081830303815290604052805190602001209050808251602084016000f56040805163485cc95560e01b81526001600160a01b038781166004830152868116602483015291519297509087169163485cc9559160448082019260009290919082900301818387803b15801561076f57600080fd5b505af1158015610783573d6000803e3d6000fd5b505050506001600160a01b0384811660008181526002602081815260408084208987168086529083528185208054978d166001600160a01b031998891681179091559383528185208686528352818520805488168517905560038054600181018255958190527fc2575a0e9e593c00f959f8c92f12db2869c3395a3b0502d05e2516446f71f85b90950180549097168417909655925483519283529082015281517f0d3648bd0f6ba80134a33ba9275ac585d9d315f0ad8355cddefde31afa28d0e9929181900390910190a35050505092915050565b60026020908152600092835260408084209091529082529020546001600160a01b031681565b6001546001600160a01b031633146108d9576040805162461bcd60e51b8152602060048201526018602482015277222c39bbb0b82330b1ba37b93c9d102327a92124a22222a760411b604482015290519081900360640190fd5b600080546001600160a01b0319166001600160a01b0392909216919091179055565b61259e806109098339019056fe6080604052600c805460ff1916601e1790556001600d5534801561002257600080fd5b50604051469080605261254c8239604080519182900360520182208282018252600683526504458737761760d41b6020938401528151808301835260018152603160f81b908401528151808401919091527f3649d708a7abf9e212d0a587955ead4123223014b2e46201dfb587457cbd4591818301527fc89efdaa54c0f20c7adf612882df0950f5a951637e0307cdcb4c672f298b8bc6606082015260808101949094523060a0808601919091528151808603909101815260c09094019052825192019190912060035550600580546001600160a01b0319163317905561243e8061010e6000396000f3fe608060405234801561001057600080fd5b50600436106101cf5760003560e01c8063649d222f11610104578063a9059cbb116100a2578063d21220a711610071578063d21220a714610582578063d505accf1461058a578063dd62ed3e146105db578063fff6cae914610609576101cf565b8063a9059cbb14610520578063ba9a7a561461054c578063bc25cf7714610554578063c45a01551461057a576101cf565b80637464fc3d116100de5780637464fc3d146104ab5780637ecebe00146104b357806389afcb44146104d957806395d89b4114610518576101cf565b8063649d222f1461043f5780636a6278421461045f57806370a0823114610485576101cf565b806330adf81f11610171578063485cc9551161014b578063485cc955146103f957806354cf2aeb146104275780635909c0d51461042f5780635a3d549314610437576101cf565b806330adf81f146103cb578063313ce567146103d35780633644e515146103f1576101cf565b8063095ea7b3116101ad578063095ea7b3146103175780630dfe16811461035757806318160ddd1461037b57806323b872dd14610395576101cf565b8063022c0d9f146101d457806306fdde03146102625780630902f1ac146102df575b600080fd5b610260600480360360808110156101ea57600080fd5b8135916020810135916001600160a01b03604083013516919081019060808101606082013564010000000081111561022157600080fd5b82018360208201111561023357600080fd5b8035906020019184600183028401116401000000008311171561025557600080fd5b509092509050610611565b005b61026a610b6d565b6040805160208082528351818301528351919283929083019185019080838360005b838110156102a457818101518382015260200161028c565b50505050905090810190601f1680156102d15780820380516001836020036101000a031916815260200191505b509250505060405180910390f35b6102e7610b8f565b604080516001600160701b03948516815292909316602083015263ffffffff168183015290519081900360600190f35b6103436004803603604081101561032d57600080fd5b506001600160a01b038135169060200135610bb9565b604080519115158252519081900360200190f35b61035f610bd0565b604080516001600160a01b039092168252519081900360200190f35b610383610bdf565b60408051918252519081900360200190f35b610343600480360360608110156103ab57600080fd5b506001600160a01b03813581169160208101359091169060400135610be5565b610383610c7f565b6103db610ca3565b6040805160ff9092168252519081900360200190f35b610383610ca8565b6102606004803603604081101561040f57600080fd5b506001600160a01b0381358116916020013516610cae565b6103db610d33565b610383610d3c565b610383610d42565b6102606004803603602081101561045557600080fd5b503560ff16610d48565b6103836004803603602081101561047557600080fd5b50356001600160a01b0316610e0d565b6103836004803603602081101561049b57600080fd5b50356001600160a01b031661110e565b610383611120565b610383600480360360208110156104c957600080fd5b50356001600160a01b0316611126565b6104ff600480360360208110156104ef57600080fd5b50356001600160a01b0316611138565b6040805192835260208301919091528051918290030190f35b61026a6114df565b6103436004803603604081101561053657600080fd5b506001600160a01b0381351690602001356114fe565b61038361150b565b6102606004803603602081101561056a57600080fd5b50356001600160a01b0316611511565b61035f61167d565b61035f61168c565b610260600480360360e08110156105a057600080fd5b506001600160a01b03813581169160208101359091169060408101359060608101359060ff6080820135169060a08101359060c0013561169b565b610383600480360360408110156105f157600080fd5b506001600160a01b038135811691602001351661189f565b6102606118bc565b600d5460011461065d576040805162461bcd60e51b815260206004820152601260248201527111161cddd85c14185a5c8e881313d0d2d15160721b604482015290519081900360640190fd5b6000600d55841515806106705750600084115b6106ab5760405162461bcd60e51b81526004018080602001828103825260268152602001806123966026913960400191505060405180910390fd5b6000806106b6610b8f565b5091509150816001600160701b0316871080156106db5750806001600160701b031686105b6107165760405162461bcd60e51b81526004018080602001828103825260228152602001806123746022913960400191505060405180910390fd5b60065460075460009182916001600160a01b039182169190811690891682148015906107545750806001600160a01b0316896001600160a01b031614155b61079e576040805162461bcd60e51b8152602060048201526016602482015275445873776170506169723a20494e56414c49445f544f60501b604482015290519081900360640190fd5b8a156107af576107af828a8d611a1f565b89156107c0576107c0818a8c611a1f565b861561087b57886001600160a01b03166378b94ae6338d8d8c8c6040518663ffffffff1660e01b815260040180866001600160a01b03166001600160a01b03168152602001858152602001848152602001806020018281038252848482818152602001925080828437600081840152601f19601f8201169050808301925050509650505050505050600060405180830381600087803b15801561086257600080fd5b505af1158015610876573d6000803e3d6000fd5b505050505b604080516370a0823160e01b815230600482015290516001600160a01b038416916370a08231916024808301926020929190829003018186803b1580156108c157600080fd5b505afa1580156108d5573d6000803e3d6000fd5b505050506040513d60208110156108eb57600080fd5b5051604080516370a0823160e01b815230600482015290519195506001600160a01b038316916370a0823191602480820192602092909190829003018186803b15801561093757600080fd5b505afa15801561094b573d6000803e3d6000fd5b505050506040513d602081101561096157600080fd5b5051925060009150506001600160701b0385168a90038311610984576000610993565b89856001600160701b03160383035b9050600089856001600160701b03160383116109b05760006109bf565b89856001600160701b03160383035b905060008211806109d05750600081115b610a0b5760405162461bcd60e51b81526004018080602001828103825260258152602001806123bc6025913960400191505060405180910390fd5b600c5460ff1615610afb57600c54600090610a5290610a3490859060ff1663ffffffff611bb916565b610a468761271063ffffffff611bb916565b9063ffffffff611c1c16565b600c54909150600090610a7390610a3490859060ff1663ffffffff611bb916565b9050610aa56305f5e100610a996001600160701b038b8116908b1663ffffffff611bb916565b9063ffffffff611bb916565b610ab5838363ffffffff611bb916565b1015610af8576040805162461bcd60e51b815260206004820152600d60248201526c445873776170506169723a204b60981b604482015290519081900360640190fd5b50505b610b0784848888611c6c565b60408051838152602081018390528082018d9052606081018c905290516001600160a01b038b169133917fd78ad95fa46c994b6551d0da85fc275fe613ce37657fb8d5e3d130840159d8229181900360800190a350506001600d55505050505050505050565b6040518060400160405280600681526020016504458737761760d41b81525081565b6008546001600160701b0380821692600160701b830490911691600160e01b900463ffffffff1690565b6000610bc6338484611e32565b5060015b92915050565b6006546001600160a01b031681565b60005481565b6001600160a01b038316600090815260026020908152604080832033845290915281205460001914610c6a576001600160a01b0384166000908152600260209081526040808320338452909152902054610c45908363ffffffff611c1c16565b6001600160a01b03851660009081526002602090815260408083203384529091529020555b610c75848484611e94565b5060019392505050565b7f6e71edae12b1b97f4d1f60370fef10105fa2faae0126114a169c64845d6126c981565b601281565b60035481565b6005546001600160a01b03163314610d05576040805162461bcd60e51b8152602060048201526015602482015274222c39bbb0b82830b4b91d102327a92124a22222a760591b604482015290519081900360640190fd5b600680546001600160a01b039384166001600160a01b03199182161790915560078054929093169116179055565b600c5460ff1681565b60095481565b600a5481565b6005546001600160a01b03163314610d9e576040805162461bcd60e51b81526020600482015260146024820152732ab734b9bbb0b82b191d102327a92124a22222a760611b604482015290519081900360640190fd5b601e8160ff161115610df7576040805162461bcd60e51b815260206004820152601860248201527f556e697377617056323a20464f5242494444454e5f4645450000000000000000604482015290519081900360640190fd5b600c805460ff191660ff92909216919091179055565b6000600d54600114610e5b576040805162461bcd60e51b815260206004820152601260248201527111161cddd85c14185a5c8e881313d0d2d15160721b604482015290519081900360640190fd5b6000600d81905580610e6b610b8f565b50600654604080516370a0823160e01b815230600482015290519395509193506000926001600160a01b03909116916370a08231916024808301926020929190829003018186803b158015610ebf57600080fd5b505afa158015610ed3573d6000803e3d6000fd5b505050506040513d6020811015610ee957600080fd5b5051600754604080516370a0823160e01b815230600482015290519293506000926001600160a01b03909216916370a0823191602480820192602092909190829003018186803b158015610f3c57600080fd5b505afa158015610f50573d6000803e3d6000fd5b505050506040513d6020811015610f6657600080fd5b505190506000610f85836001600160701b03871663ffffffff611c1c16565b90506000610fa2836001600160701b03871663ffffffff611c1c16565b90506000610fb08787611f4e565b60005490915080610fed57610fd96103e8610a46610fd4878763ffffffff611bb916565b612126565b9850610fe860006103e8612178565b61103c565b6110396001600160701b03891661100a868463ffffffff611bb916565b8161101157fe5b046001600160701b03891661102c868563ffffffff611bb916565b8161103357fe5b0461220e565b98505b6000891161107b5760405162461bcd60e51b815260040180806020018281038252602981526020018061234b6029913960400191505060405180910390fd5b6110858a8a612178565b61109186868a8a611c6c565b81156110c1576008546110bd906001600160701b0380821691600160701b90041663ffffffff611bb916565b600b555b6040805185815260208101859052815133927f4c209b5fc8ad50758f13e2e1088ba56a560dff690a1c6fef26394f4c03821c4f928290030190a250506001600d5550949695505050505050565b60016020526000908152604090205481565b600b5481565b60046020526000908152604090205481565b600080600d54600114611187576040805162461bcd60e51b815260206004820152601260248201527111161cddd85c14185a5c8e881313d0d2d15160721b604482015290519081900360640190fd5b6000600d81905580611197610b8f565b50600654600754604080516370a0823160e01b815230600482015290519496509294506001600160a01b039182169391169160009184916370a08231916024808301926020929190829003018186803b1580156111f357600080fd5b505afa158015611207573d6000803e3d6000fd5b505050506040513d602081101561121d57600080fd5b5051604080516370a0823160e01b815230600482015290519192506000916001600160a01b038516916370a08231916024808301926020929190829003018186803b15801561126b57600080fd5b505afa15801561127f573d6000803e3d6000fd5b505050506040513d602081101561129557600080fd5b5051306000908152600160205260408120549192506112b48888611f4e565b600054909150806112cb848763ffffffff611bb916565b816112d257fe5b049a50806112e6848663ffffffff611bb916565b816112ed57fe5b04995060008b118015611300575060008a115b61133b5760405162461bcd60e51b81526004018080602001828103825260298152602001806123e16029913960400191505060405180910390fd5b6113453084612226565b611350878d8d611a1f565b61135b868d8c611a1f565b604080516370a0823160e01b815230600482015290516001600160a01b038916916370a08231916024808301926020929190829003018186803b1580156113a157600080fd5b505afa1580156113b5573d6000803e3d6000fd5b505050506040513d60208110156113cb57600080fd5b5051604080516370a0823160e01b815230600482015290519196506001600160a01b038816916370a0823191602480820192602092909190829003018186803b15801561141757600080fd5b505afa15801561142b573d6000803e3d6000fd5b505050506040513d602081101561144157600080fd5b5051935061145185858b8b611c6c565b81156114815760085461147d906001600160701b0380821691600160701b90041663ffffffff611bb916565b600b555b604080518c8152602081018c905281516001600160a01b038f169233927fdccd412f0b1252819cb1fd330b93224ca42612892bb3f4f789976e6d81936496929081900390910190a35050505050505050506001600d81905550915091565b6040518060400160405280600381526020016244585360e81b81525081565b6000610bc6338484611e94565b6103e881565b600d5460011461155d576040805162461bcd60e51b815260206004820152601260248201527111161cddd85c14185a5c8e881313d0d2d15160721b604482015290519081900360640190fd5b6000600d55600654600754600854604080516370a0823160e01b815230600482015290516001600160a01b03948516949093169261160c9285928792611607926001600160701b03169185916370a0823191602480820192602092909190829003018186803b1580156115cf57600080fd5b505afa1580156115e3573d6000803e3d6000fd5b505050506040513d60208110156115f957600080fd5b50519063ffffffff611c1c16565b611a1f565b600854604080516370a0823160e01b81523060048201529051611673928492879261160792600160701b90046001600160701b0316916001600160a01b038616916370a0823191602480820192602092909190829003018186803b1580156115cf57600080fd5b50506001600d5550565b6005546001600160a01b031681565b6007546001600160a01b031681565b428410156116e7576040805162461bcd60e51b815260206004820152601460248201527311161cddd85c115490cc8c0e881156141254915160621b604482015290519081900360640190fd5b6003546001600160a01b0380891660008181526004602090815260408083208054600180820190925582517f6e71edae12b1b97f4d1f60370fef10105fa2faae0126114a169c64845d6126c98186015280840196909652958d166060860152608085018c905260a085019590955260c08085018b90528151808603909101815260e08501825280519083012061190160f01b6101008601526101028501969096526101228085019690965280518085039096018652610142840180825286519683019690962095839052610162840180825286905260ff89166101828501526101a284018890526101c28401879052519193926101e280820193601f1981019281900390910190855afa158015611802573d6000803e3d6000fd5b5050604051601f1901519150506001600160a01b038116158015906118385750886001600160a01b0316816001600160a01b0316145b611889576040805162461bcd60e51b815260206004820152601e60248201527f44587377617045524332303a20494e56414c49445f5349474e41545552450000604482015290519081900360640190fd5b611894898989611e32565b505050505050505050565b600260209081526000928352604080842090915290825290205481565b600d54600114611908576040805162461bcd60e51b815260206004820152601260248201527111161cddd85c14185a5c8e881313d0d2d15160721b604482015290519081900360640190fd5b6000600d55600654604080516370a0823160e01b81523060048201529051611a18926001600160a01b0316916370a08231916024808301926020929190829003018186803b15801561195957600080fd5b505afa15801561196d573d6000803e3d6000fd5b505050506040513d602081101561198357600080fd5b5051600754604080516370a0823160e01b815230600482015290516001600160a01b03909216916370a0823191602480820192602092909190829003018186803b1580156119d057600080fd5b505afa1580156119e4573d6000803e3d6000fd5b505050506040513d60208110156119fa57600080fd5b50516008546001600160701b0380821691600160701b900416611c6c565b6001600d55565b604080518082018252601981527f7472616e7366657228616464726573732c75696e74323536290000000000000060209182015281516001600160a01b0385811660248301526044808301869052845180840390910181526064909201845291810180516001600160e01b031663a9059cbb60e01b1781529251815160009460609489169392918291908083835b60208310611acc5780518252601f199092019160209182019101611aad565b6001836020036101000a0380198251168184511680821785525050505050509050019150506000604051808303816000865af19150503d8060008114611b2e576040519150601f19603f3d011682016040523d82523d6000602084013e611b33565b606091505b5091509150818015611b61575080511580611b615750808060200190516020811015611b5e57600080fd5b50515b611bb2576040805162461bcd60e51b815260206004820152601b60248201527f445873776170506169723a205452414e534645525f4641494c45440000000000604482015290519081900360640190fd5b5050505050565b6000811580611bd457505080820282828281611bd157fe5b04145b610bca576040805162461bcd60e51b815260206004820152601460248201527364732d6d6174682d6d756c2d6f766572666c6f7760601b604482015290519081900360640190fd5b80820382811115610bca576040805162461bcd60e51b815260206004820152601560248201527464732d6d6174682d7375622d756e646572666c6f7760581b604482015290519081900360640190fd5b6001600160701b038411801590611c8a57506001600160701b038311155b611cd2576040805162461bcd60e51b8152602060048201526014602482015273445873776170506169723a204f564552464c4f5760601b604482015290519081900360640190fd5b60085463ffffffff42811691600160e01b90048116820390811615801590611d0257506001600160701b03841615155b8015611d1657506001600160701b03831615155b15611d87578063ffffffff16611d4485611d2f866122c4565b6001600160e01b03169063ffffffff6122d616565b600980546001600160e01b03929092169290920201905563ffffffff8116611d6f84611d2f876122c4565b600a80546001600160e01b0392909216929092020190555b600880546dffffffffffffffffffffffffffff19166001600160701b03888116919091176dffffffffffffffffffffffffffff60701b1916600160701b8883168102919091176001600160e01b0316600160e01b63ffffffff871602179283905560408051848416815291909304909116602082015281517f1c411e9a96e071241c2f21f7726b17ae89e3cab4c78be50e062b03a9fffbbad1929181900390910190a1505050505050565b6001600160a01b03808416600081815260026020908152604080832094871680845294825291829020859055815185815291517f8c5be1e5ebec7d5bd14f71427d1e84f3dd0314c0f7b2291e5b200ac8c7c3b9259281900390910190a3505050565b6001600160a01b038316600090815260016020526040902054611ebd908263ffffffff611c1c16565b6001600160a01b038085166000908152600160205260408082209390935590841681522054611ef2908263ffffffff6122fb16565b6001600160a01b0380841660008181526001602090815260409182902094909455805185815290519193928716927fddf252ad1be2c89b69c2b068fc378daa952ba7f163c4a11628f55a4df523b3ef92918290030190a3505050565b600080600560009054906101000a90046001600160a01b03166001600160a01b031663017e7e586040518163ffffffff1660e01b815260040160206040518083038186803b158015611f9f57600080fd5b505afa158015611fb3573d6000803e3d6000fd5b505050506040513d6020811015611fc957600080fd5b5051600554604080516317fb821560e11b815290519293506000926001600160a01b0390921691632ff7042a91600480820192602092909190829003018186803b15801561201657600080fd5b505afa15801561202a573d6000803e3d6000fd5b505050506040513d602081101561204057600080fd5b5051600b546001600160a01b03841615801595509192509061211157801561210c576000612083610fd46001600160701b0389811690891663ffffffff611bb916565b9050600061209083612126565b9050808211156121095760006120be6120af848463ffffffff611c1c16565b6000549063ffffffff611bb916565b905060006120e5836120d98660ff8a1663ffffffff611bb916565b9063ffffffff6122fb16565b905060008183816120f257fe5b0490508015612105576121058882612178565b5050505b50505b61211d565b801561211d576000600b555b50505092915050565b60006003821115612169575080600160028204015b818110156121635780915060028182858161215257fe5b04018161215b57fe5b04905061213b565b50612173565b8115612173575060015b919050565b60005461218b908263ffffffff6122fb16565b60009081556001600160a01b0383168152600160205260409020546121b6908263ffffffff6122fb16565b6001600160a01b03831660008181526001602090815260408083209490945583518581529351929391927fddf252ad1be2c89b69c2b068fc378daa952ba7f163c4a11628f55a4df523b3ef9281900390910190a35050565b600081831061221d578161221f565b825b9392505050565b6001600160a01b03821660009081526001602052604090205461224f908263ffffffff611c1c16565b6001600160a01b0383166000908152600160205260408120919091555461227c908263ffffffff611c1c16565b60009081556040805183815290516001600160a01b038516917fddf252ad1be2c89b69c2b068fc378daa952ba7f163c4a11628f55a4df523b3ef919081900360200190a35050565b6001600160701b0316600160701b0290565b60006001600160701b0382166001600160e01b038416816122f357fe5b049392505050565b80820182811015610bca576040805162461bcd60e51b815260206004820152601460248201527364732d6d6174682d6164642d6f766572666c6f7760601b604482015290519081900360640190fdfe445873776170506169723a20494e53554646494349454e545f4c49515549444954595f4d494e544544445873776170506169723a20494e53554646494349454e545f4c4951554944495459445873776170506169723a20494e53554646494349454e545f4f55545055545f414d4f554e54445873776170506169723a20494e53554646494349454e545f494e5055545f414d4f554e54445873776170506169723a20494e53554646494349454e545f4c49515549444954595f4255524e4544a265627a7a723158204414f4546c1e72cfac1d316a481eff81257924cd834e99dcc36be6eee601896564736f6c63430005100032454950373132446f6d61696e28737472696e67206e616d652c737472696e672076657273696f6e2c75696e7432353620636861696e49642c6164647265737320766572696679696e67436f6e747261637429445873776170466163746f72793a204944454e544943414c5f414444524553534553a265627a7a72315820cc8587ffb90db68251e0163e1874c3e8ae99550fda49c3f9aeac3735f68638fa64736f6c63430005100032",
  "compiler": {
    "name": "solc",
    "version": "0.5.16+commit.9c3226ce.Linux.g++",
    "optimizer": {
      "enabled": true,
      "runs": 200
    },
    "evmVersion": "istanbul"
  }
}