{
  "fileName": "DXswapDeployer.sol",
  "contractName": "DXswapDeployer",
  "source": "pragma solidity =0.5.16;\n\nimport './DXswapFactory.sol';\nimport './interfaces/IDXswapPair.sol';\n\n\ncontract DXswapDeployer {\n    \n    address payable public dxdaoAvatar;\n    uint8 public state = 0;\n\n    struct TokenPair {\n        address tokenA;\n        address tokenB;\n        uint32 swapFee;\n    }\n    \n    TokenPair[] public initialTokenPairs;\n    \n    event PairFactoryDeployed(address factory);\n    event PairDeployed(address pair);\n        \n    // Step 1: Create the deployer contract with all the needed information for deployment.\n    constructor(\n        address payable _dxdaoAvatar,\n        address[] memory tokensA,\n        address[] memory tokensB,\n        uint32[] memory swapFees\n    ) public {\n        dxdaoAvatar = _dxdaoAvatar;\n        for(uint8 i = 0; i < tokensA.length; i ++) {\n            initialTokenPairs.push(\n                TokenPair(\n                    tokensA[i],\n                    tokensB[i],\n                    swapFees[i]\n                )\n            );\n        }\n    }\n    \n    // Step 2: Transfer ETH from the DXdao avatar to allow the deploy function to be called.\n    function() external payable {\n        require(state == 0);\n        require(msg.sender == dxdaoAvatar, 'DXswapDeployer: CALLER_NOT_FEE_TO_SETTER');\n        state = 1;\n    }\n    \n    // Step 3: Deploy DXswapFactory and all initial pairs\n    function deploy() public {\n        require(state == 1);\n        DXswapFactory dxSwapFactory = new DXswapFactory(address(this));\n        emit PairFactoryDeployed(address(dxSwapFactory));\n        for(uint8 i = 0; i < initialTokenPairs.length; i ++) {\n            address newPair = dxSwapFactory.createPair(initialTokenPairs[i].tokenA, initialTokenPairs[i].tokenB);\n            dxSwapFactory.setSwapFee(newPair, initialTokenPairs[i].swapFee);\n            emit PairDeployed(\n                address(newPair)\n            );\n        }\n        dxSwapFactory.setFeeTo(dxdaoAvatar);\n        dxSwapFactory.setFeeToSetter(dxdaoAvatar);\n        state = 2;\n        msg.sender.transfer(address(this).balance);\n    }\n    \n  \n}\n",
  "sourcePath": "contracts/DXswapDeployer.sol",
  "abi": [
    {
      "inputs": [
        {
          "internalType": "address payable",
          "name": "_dxdaoAvatar",
          "type": "address"
        },
        {
          "internalType": "address[]",
          "name": "tokensA",
          "type": "address[]"
        },
        {
          "internalType": "address[]",
          "name": "tokensB",
          "type": "address[]"
        },
        {
          "internalType": "uint32[]",
          "name": "swapFees",
          "type": "uint32[]"
        }
      ],
      "payable": false,
      "stateMutability": "nonpayable",
      "type": "constructor"
    },
    {
      "anonymous": false,
      "inputs": [
        {
          "indexed": false,
          "internalType": "address",
          "name": "pair",
          "type": "address"
        }
      ],
      "name": "PairDeployed",
      "type": "event"
    },
    {
      "anonymous": false,
      "inputs": [
        {
          "indexed": false,
          "internalType": "address",
          "name": "factory",
          "type": "address"
        }
      ],
      "name": "PairFactoryDeployed",
      "type": "event"
    },
    {
      "payable": true,
      "stateMutability": "payable",
      "type": "fallback"
    },
    {
      "constant": false,
      "inputs": [],
      "name": "deploy",
      "outputs": [],
      "payable": false,
      "stateMutability": "nonpayable",
      "type": "function"
    },
    {
      "constant": true,
      "inputs": [],
      "name": "dxdaoAvatar",
      "outputs": [
        {
          "internalType": "address payable",
          "name": "",
          "type": "address"
        }
      ],
      "payable": false,
      "stateMutability": "view",
      "type": "function"
    },
    {
      "constant": true,
      "inputs": [
        {
          "internalType": "uint256",
          "name": "",
          "type": "uint256"
        }
      ],
      "name": "initialTokenPairs",
      "outputs": [
        {
          "internalType": "address",
          "name": "tokenA",
          "type": "address"
        },
        {
          "internalType": "address",
          "name": "tokenB",
          "type": "address"
        },
        {
          "internalType": "uint32",
          "name": "swapFee",
          "type": "uint32"
        }
      ],
      "payable": false,
      "stateMutability": "view",
      "type": "function"
    },
    {
      "constant": true,
      "inputs": [],
      "name": "state",
      "outputs": [
        {
          "internalType": "uint8",
          "name": "",
          "type": "uint8"
        }
      ],
      "payable": false,
      "stateMutability": "view",
      "type": "function"
    }
  ],
  "bytecode": "0x60806040526000805460ff60a01b1916905534801561001d57600080fd5b506040516138843803806138848339818101604052608081101561004057600080fd5b81516020830180516040519294929383019291908464010000000082111561006757600080fd5b90830190602082018581111561007c57600080fd5b825186602082028301116401000000008211171561009957600080fd5b82525081516020918201928201910280838360005b838110156100c65781810151838201526020016100ae565b50505050905001604052602001805160405193929190846401000000008211156100ef57600080fd5b90830190602082018581111561010457600080fd5b825186602082028301116401000000008211171561012157600080fd5b82525081516020918201928201910280838360005b8381101561014e578181015183820152602001610136565b505050509050016040526020018051604051939291908464010000000082111561017757600080fd5b90830190602082018581111561018c57600080fd5b82518660208202830111640100000000821117156101a957600080fd5b82525081516020918201928201910280838360005b838110156101d65781810151838201526020016101be565b50505050919091016040525050600080546001600160a01b0319166001600160a01b0388161781559150505b83518160ff1610156102f75760016040518060600160405280868460ff168151811061022a57fe5b60200260200101516001600160a01b03168152602001858460ff168151811061024f57fe5b60200260200101516001600160a01b03168152602001848460ff168151811061027457fe5b60209081029190910181015163ffffffff908116909252835460018082018655600095865294829020845160029092020180546001600160a01b03199081166001600160a01b039384161782559285015190860180546040909601519590931691161763ffffffff60a01b1916600160a01b939092169290920217905501610202565b50505050506135798061030b6000396000f3fe60806040526004361061003f5760003560e01c8063775c300c146100b4578063c19d93fb146100cb578063e07d14b4146100f6578063e5fdf8de14610150575b600054600160a01b900460ff161561005657600080fd5b6000546001600160a01b0316331461009f5760405162461bcd60e51b815260040180806020018281038252602881526020018061351d6028913960400191505060405180910390fd5b6000805460ff60a01b1916600160a01b179055005b3480156100c057600080fd5b506100c9610181565b005b3480156100d757600080fd5b506100e06104ff565b6040805160ff9092168252519081900360200190f35b34801561010257600080fd5b506101206004803603602081101561011957600080fd5b503561050f565b604080516001600160a01b03948516815292909316602083015263ffffffff168183015290519081900360600190f35b34801561015c57600080fd5b50610165610555565b604080516001600160a01b039092168252519081900360200190f35b600054600160a01b900460ff1660011461019a57600080fd5b6000306040516101a990610564565b6001600160a01b03909116815260405190819003602001906000f0801580156101d6573d6000803e3d6000fd5b50604080516001600160a01b038316815290519192507f8eef7239ce5bc4f9918f5584befdc2ee2113478098db0ca89bdf5f0d6ff32a6f919081900360200190a160005b60015460ff821610156103f6576000826001600160a01b031663c9c6539660018460ff168154811061024857fe5b6000918252602090912060029091020154600180546001600160a01b039092169160ff871690811061027657fe5b6000918252602080832060016002909302019190910154604080516001600160e01b031960e088901b1681526001600160a01b03958616600482015294909116602485015251604480850194929391928390030190829087803b1580156102dc57600080fd5b505af11580156102f0573d6000803e3d6000fd5b505050506040513d602081101561030657600080fd5b5051600180549192506001600160a01b03851691639e68ceb891849160ff871690811061032f57fe5b60009182526020822060029190910201600101546040805160e086901b6001600160e01b03191681526001600160a01b03949094166004850152600160a01b90910463ffffffff1660248401525160448084019382900301818387803b15801561039857600080fd5b505af11580156103ac573d6000803e3d6000fd5b5050604080516001600160a01b038516815290517f29548d6a519d97e51db535dddb28bc2c7f262348939f8c389a0fe32591848e7d9350908190036020019150a15060010161021a565b50600080546040805163f46901ed60e01b81526001600160a01b03928316600482015290519184169263f46901ed9260248084019382900301818387803b15801561044057600080fd5b505af1158015610454573d6000803e3d6000fd5b50506000805460408051635173a57b60e11b81526001600160a01b0392831660048201529051918616945063a2e74af69350602480820193929182900301818387803b1580156104a357600080fd5b505af11580156104b7573d6000803e3d6000fd5b505060008054600160a11b60ff60a01b199091161781556040513393504780156108fc02935091818181858888f193505050501580156104fb573d6000803e3d6000fd5b5050565b600054600160a01b900460ff1681565b6001818154811061051c57fe5b6000918252602090912060029091020180546001909101546001600160a01b03918216925090811690600160a01b900463ffffffff1683565b6000546001600160a01b031681565b612fab806105728339019056fe60806040526001805460ff60a01b1916600960a01b17905534801561002357600080fd5b50604051612fab380380612fab8339818101604052602081101561004657600080fd5b5051600180546001600160a01b0319166001600160a01b03909216919091179055612f35806100766000396000f3fe608060405234801561001057600080fd5b50600436106100b45760003560e01c80635855a25a116100715780635855a25a1461015c5780639e68ceb814610164578063a2e74af614610196578063c9c65396146101bc578063e6a43905146101ea578063f46901ed14610218576100b4565b8063017e7e58146100b9578063094b7415146100dd5780631e3dd18b146100e55780632ff7042a146101025780634e91f81114610120578063574f2ba314610142575b600080fd5b6100c161023e565b604080516001600160a01b039092168252519081900360200190f35b6100c161024d565b6100c1600480360360208110156100fb57600080fd5b503561025c565b61010a610283565b6040805160ff9092168252519081900360200190f35b6101406004803603602081101561013657600080fd5b503560ff16610293565b005b61014a610365565b60408051918252519081900360200190f35b61014a61036b565b6101406004803603604081101561017a57600080fd5b5080356001600160a01b0316906020013563ffffffff166103fe565b610140600480360360208110156101ac57600080fd5b50356001600160a01b03166104c1565b6100c1600480360360408110156101d257600080fd5b506001600160a01b038135811691602001351661053d565b6100c16004803603604081101561020057600080fd5b506001600160a01b038135811691602001351661085f565b6101406004803603602081101561022e57600080fd5b50356001600160a01b0316610885565b6000546001600160a01b031681565b6001546001600160a01b031681565b6003818154811061026957fe5b6000918252602090912001546001600160a01b0316905081565b600154600160a01b900460ff1681565b6001546001600160a01b031633146102ed576040805162461bcd60e51b8152602060048201526018602482015277222c39bbb0b82330b1ba37b93c9d102327a92124a22222a760411b604482015290519081900360640190fd5b60008160ff1611610345576040805162461bcd60e51b815260206004820152601c60248201527f445873776170466163746f72793a20464f5242494444454e5f46454500000000604482015290519081900360640190fd5b6001805460ff909216600160a01b0260ff60a01b19909216919091179055565b60035490565b60405161037a60208201610901565b6020820181038252601f19601f820116604052506040516020018082805190602001908083835b602083106103c05780518252601f1990920191602091820191016103a1565b6001836020036101000a0380198251168184511680821785525050505050509050019150506040516020818303038152906040528051906020012081565b6001546001600160a01b03163314610458576040805162461bcd60e51b8152602060048201526018602482015277222c39bbb0b82330b1ba37b93c9d102327a92124a22222a760411b604482015290519081900360640190fd5b6040805163d6d788c360e01b815263ffffffff8316600482015290516001600160a01b0384169163d6d788c391602480830192600092919082900301818387803b1580156104a557600080fd5b505af11580156104b9573d6000803e3d6000fd5b505050505050565b6001546001600160a01b0316331461051b576040805162461bcd60e51b8152602060048201526018602482015277222c39bbb0b82330b1ba37b93c9d102327a92124a22222a760411b604482015290519081900360640190fd5b600180546001600160a01b0319166001600160a01b0392909216919091179055565b6000816001600160a01b0316836001600160a01b031614156105905760405162461bcd60e51b8152600401808060200182810382526022815260200180612edf6022913960400191505060405180910390fd5b600080836001600160a01b0316856001600160a01b0316106105b35783856105b6565b84845b90925090506001600160a01b038216610616576040805162461bcd60e51b815260206004820152601b60248201527f445873776170466163746f72793a205a45524f5f414444524553530000000000604482015290519081900360640190fd5b6001600160a01b03828116600090815260026020908152604080832085851684529091529020541615610690576040805162461bcd60e51b815260206004820152601a60248201527f445873776170466163746f72793a20504149525f455849535453000000000000604482015290519081900360640190fd5b6060604051806020016106a290610901565b6020820181038252601f19601f8201166040525090506000838360405160200180836001600160a01b03166001600160a01b031660601b8152601401826001600160a01b03166001600160a01b031660601b815260140192505050604051602081830303815290604052805190602001209050808251602084016000f56040805163485cc95560e01b81526001600160a01b038781166004830152868116602483015291519297509087169163485cc9559160448082019260009290919082900301818387803b15801561077557600080fd5b505af1158015610789573d6000803e3d6000fd5b505050506001600160a01b0384811660008181526002602081815260408084208987168086529083528185208054978d166001600160a01b031998891681179091559383528185208686528352818520805488168517905560038054600181018255958190527fc2575a0e9e593c00f959f8c92f12db2869c3395a3b0502d05e2516446f71f85b90950180549097168417909655925483519283529082015281517f0d3648bd0f6ba80134a33ba9275ac585d9d315f0ad8355cddefde31afa28d0e9929181900390910190a35050505092915050565b60026020908152600092835260408084209091529082529020546001600160a01b031681565b6001546001600160a01b031633146108df576040805162461bcd60e51b8152602060048201526018602482015277222c39bbb0b82330b1ba37b93c9d102327a92124a22222a760411b604482015290519081900360640190fd5b600080546001600160a01b0319166001600160a01b0392909216919091179055565b6125d08061090f8339019056fe6080604052600c805463ffffffff191660191790556001600d5534801561002557600080fd5b50604051469080605261257e8239604080519182900360520182208282018252600683526504458737761760d41b6020938401528151808301835260018152603160f81b908401528151808401919091527f3649d708a7abf9e212d0a587955ead4123223014b2e46201dfb587457cbd4591818301527fc89efdaa54c0f20c7adf612882df0950f5a951637e0307cdcb4c672f298b8bc6606082015260808101949094523060a0808601919091528151808603909101815260c09094019052825192019190912060035550600580546001600160a01b0319163317905561246d806101116000396000f3fe608060405234801561001057600080fd5b50600436106101cf5760003560e01c80636a62784211610104578063ba9a7a56116100a2578063d505accf11610071578063d505accf14610583578063d6d788c3146105d4578063dd62ed3e146105f7578063fff6cae914610625576101cf565b8063ba9a7a5614610545578063bc25cf771461054d578063c45a015514610573578063d21220a71461057b576101cf565b80637ecebe00116100de5780637ecebe00146104ac57806389afcb44146104d257806395d89b4114610511578063a9059cbb14610519576101cf565b80636a6278421461045857806370a082311461047e5780637464fc3d146104a4576101cf565b806330adf81f11610171578063485cc9551161014b578063485cc955146103f957806354cf2aeb146104275780635909c0d5146104485780635a3d549314610450576101cf565b806330adf81f146103cb578063313ce567146103d35780633644e515146103f1576101cf565b8063095ea7b3116101ad578063095ea7b3146103175780630dfe16811461035757806318160ddd1461037b57806323b872dd14610395576101cf565b8063022c0d9f146101d457806306fdde03146102625780630902f1ac146102df575b600080fd5b610260600480360360808110156101ea57600080fd5b8135916020810135916001600160a01b03604083013516919081019060808101606082013564010000000081111561022157600080fd5b82018360208201111561023357600080fd5b8035906020019184600183028401116401000000008311171561025557600080fd5b50909250905061062d565b005b61026a610b8e565b6040805160208082528351818301528351919283929083019185019080838360005b838110156102a457818101518382015260200161028c565b50505050905090810190601f1680156102d15780820380516001836020036101000a031916815260200191505b509250505060405180910390f35b6102e7610bb0565b604080516001600160701b03948516815292909316602083015263ffffffff168183015290519081900360600190f35b6103436004803603604081101561032d57600080fd5b506001600160a01b038135169060200135610bda565b604080519115158252519081900360200190f35b61035f610bf1565b604080516001600160a01b039092168252519081900360200190f35b610383610c00565b60408051918252519081900360200190f35b610343600480360360608110156103ab57600080fd5b506001600160a01b03813581169160208101359091169060400135610c06565b610383610ca0565b6103db610cc4565b6040805160ff9092168252519081900360200190f35b610383610cc9565b6102606004803603604081101561040f57600080fd5b506001600160a01b0381358116916020013516610ccf565b61042f610d54565b6040805163ffffffff9092168252519081900360200190f35b610383610d60565b610383610d66565b6103836004803603602081101561046e57600080fd5b50356001600160a01b0316610d6c565b6103836004803603602081101561049457600080fd5b50356001600160a01b031661106d565b61038361107f565b610383600480360360208110156104c257600080fd5b50356001600160a01b0316611085565b6104f8600480360360208110156104e857600080fd5b50356001600160a01b0316611097565b6040805192835260208301919091528051918290030190f35b61026a61143e565b6103436004803603604081101561052f57600080fd5b506001600160a01b03813516906020013561145d565b61038361146a565b6102606004803603602081101561056357600080fd5b50356001600160a01b0316611470565b61035f6115dc565b61035f6115eb565b610260600480360360e081101561059957600080fd5b506001600160a01b03813581169160208101359091169060408101359060608101359060ff6080820135169060a08101359060c001356115fa565b610260600480360360208110156105ea57600080fd5b503563ffffffff166117fe565b6103836004803603604081101561060d57600080fd5b506001600160a01b03813581169160200135166118ce565b6102606118eb565b600d54600114610679576040805162461bcd60e51b815260206004820152601260248201527111161cddd85c14185a5c8e881313d0d2d15160721b604482015290519081900360640190fd5b6000600d558415158061068c5750600084115b6106c75760405162461bcd60e51b81526004018080602001828103825260268152602001806123c56026913960400191505060405180910390fd5b6000806106d2610bb0565b5091509150816001600160701b0316871080156106f75750806001600160701b031686105b6107325760405162461bcd60e51b81526004018080602001828103825260228152602001806123a36022913960400191505060405180910390fd5b60065460075460009182916001600160a01b039182169190811690891682148015906107705750806001600160a01b0316896001600160a01b031614155b6107ba576040805162461bcd60e51b8152602060048201526016602482015275445873776170506169723a20494e56414c49445f544f60501b604482015290519081900360640190fd5b8a156107cb576107cb828a8d611a4e565b89156107dc576107dc818a8c611a4e565b861561089757886001600160a01b03166378b94ae6338d8d8c8c6040518663ffffffff1660e01b815260040180866001600160a01b03166001600160a01b03168152602001858152602001848152602001806020018281038252848482818152602001925080828437600081840152601f19601f8201169050808301925050509650505050505050600060405180830381600087803b15801561087e57600080fd5b505af1158015610892573d6000803e3d6000fd5b505050505b604080516370a0823160e01b815230600482015290516001600160a01b038416916370a08231916024808301926020929190829003018186803b1580156108dd57600080fd5b505afa1580156108f1573d6000803e3d6000fd5b505050506040513d602081101561090757600080fd5b5051604080516370a0823160e01b815230600482015290519195506001600160a01b038316916370a0823191602480820192602092909190829003018186803b15801561095357600080fd5b505afa158015610967573d6000803e3d6000fd5b505050506040513d602081101561097d57600080fd5b5051925060009150506001600160701b0385168a900383116109a05760006109af565b89856001600160701b03160383035b9050600089856001600160701b03160383116109cc5760006109db565b89856001600160701b03160383035b905060008211806109ec5750600081115b610a275760405162461bcd60e51b81526004018080602001828103825260258152602001806123eb6025913960400191505060405180910390fd5b600c5463ffffffff1615610b1c57600c54600090610a7290610a5490859063ffffffff90811690611be816565b610a668761271063ffffffff611be816565b9063ffffffff611c4b16565b600c54909150600090610a9490610a5490859063ffffffff90811690611be816565b9050610ac66305f5e100610aba6001600160701b038b8116908b1663ffffffff611be816565b9063ffffffff611be816565b610ad6838363ffffffff611be816565b1015610b19576040805162461bcd60e51b815260206004820152600d60248201526c445873776170506169723a204b60981b604482015290519081900360640190fd5b50505b610b2884848888611c9b565b60408051838152602081018390528082018d9052606081018c905290516001600160a01b038b169133917fd78ad95fa46c994b6551d0da85fc275fe613ce37657fb8d5e3d130840159d8229181900360800190a350506001600d55505050505050505050565b6040518060400160405280600681526020016504458737761760d41b81525081565b6008546001600160701b0380821692600160701b830490911691600160e01b900463ffffffff1690565b6000610be7338484611e61565b5060015b92915050565b6006546001600160a01b031681565b60005481565b6001600160a01b038316600090815260026020908152604080832033845290915281205460001914610c8b576001600160a01b0384166000908152600260209081526040808320338452909152902054610c66908363ffffffff611c4b16565b6001600160a01b03851660009081526002602090815260408083203384529091529020555b610c96848484611ec3565b5060019392505050565b7f6e71edae12b1b97f4d1f60370fef10105fa2faae0126114a169c64845d6126c981565b601281565b60035481565b6005546001600160a01b03163314610d26576040805162461bcd60e51b8152602060048201526015602482015274222c39bbb0b82830b4b91d102327a92124a22222a760591b604482015290519081900360640190fd5b600680546001600160a01b039384166001600160a01b03199182161790915560078054929093169116179055565b600c5463ffffffff1681565b60095481565b600a5481565b6000600d54600114610dba576040805162461bcd60e51b815260206004820152601260248201527111161cddd85c14185a5c8e881313d0d2d15160721b604482015290519081900360640190fd5b6000600d81905580610dca610bb0565b50600654604080516370a0823160e01b815230600482015290519395509193506000926001600160a01b03909116916370a08231916024808301926020929190829003018186803b158015610e1e57600080fd5b505afa158015610e32573d6000803e3d6000fd5b505050506040513d6020811015610e4857600080fd5b5051600754604080516370a0823160e01b815230600482015290519293506000926001600160a01b03909216916370a0823191602480820192602092909190829003018186803b158015610e9b57600080fd5b505afa158015610eaf573d6000803e3d6000fd5b505050506040513d6020811015610ec557600080fd5b505190506000610ee4836001600160701b03871663ffffffff611c4b16565b90506000610f01836001600160701b03871663ffffffff611c4b16565b90506000610f0f8787611f7d565b60005490915080610f4c57610f386103e8610a66610f33878763ffffffff611be816565b612155565b9850610f4760006103e86121a7565b610f9b565b610f986001600160701b038916610f69868463ffffffff611be816565b81610f7057fe5b046001600160701b038916610f8b868563ffffffff611be816565b81610f9257fe5b0461223d565b98505b60008911610fda5760405162461bcd60e51b815260040180806020018281038252602981526020018061237a6029913960400191505060405180910390fd5b610fe48a8a6121a7565b610ff086868a8a611c9b565b81156110205760085461101c906001600160701b0380821691600160701b90041663ffffffff611be816565b600b555b6040805185815260208101859052815133927f4c209b5fc8ad50758f13e2e1088ba56a560dff690a1c6fef26394f4c03821c4f928290030190a250506001600d5550949695505050505050565b60016020526000908152604090205481565b600b5481565b60046020526000908152604090205481565b600080600d546001146110e6576040805162461bcd60e51b815260206004820152601260248201527111161cddd85c14185a5c8e881313d0d2d15160721b604482015290519081900360640190fd5b6000600d819055806110f6610bb0565b50600654600754604080516370a0823160e01b815230600482015290519496509294506001600160a01b039182169391169160009184916370a08231916024808301926020929190829003018186803b15801561115257600080fd5b505afa158015611166573d6000803e3d6000fd5b505050506040513d602081101561117c57600080fd5b5051604080516370a0823160e01b815230600482015290519192506000916001600160a01b038516916370a08231916024808301926020929190829003018186803b1580156111ca57600080fd5b505afa1580156111de573d6000803e3d6000fd5b505050506040513d60208110156111f457600080fd5b5051306000908152600160205260408120549192506112138888611f7d565b6000549091508061122a848763ffffffff611be816565b8161123157fe5b049a5080611245848663ffffffff611be816565b8161124c57fe5b04995060008b11801561125f575060008a115b61129a5760405162461bcd60e51b81526004018080602001828103825260298152602001806124106029913960400191505060405180910390fd5b6112a43084612255565b6112af878d8d611a4e565b6112ba868d8c611a4e565b604080516370a0823160e01b815230600482015290516001600160a01b038916916370a08231916024808301926020929190829003018186803b15801561130057600080fd5b505afa158015611314573d6000803e3d6000fd5b505050506040513d602081101561132a57600080fd5b5051604080516370a0823160e01b815230600482015290519196506001600160a01b038816916370a0823191602480820192602092909190829003018186803b15801561137657600080fd5b505afa15801561138a573d6000803e3d6000fd5b505050506040513d60208110156113a057600080fd5b505193506113b085858b8b611c9b565b81156113e0576008546113dc906001600160701b0380821691600160701b90041663ffffffff611be816565b600b555b604080518c8152602081018c905281516001600160a01b038f169233927fdccd412f0b1252819cb1fd330b93224ca42612892bb3f4f789976e6d81936496929081900390910190a35050505050505050506001600d81905550915091565b6040518060400160405280600381526020016244585360e81b81525081565b6000610be7338484611ec3565b6103e881565b600d546001146114bc576040805162461bcd60e51b815260206004820152601260248201527111161cddd85c14185a5c8e881313d0d2d15160721b604482015290519081900360640190fd5b6000600d55600654600754600854604080516370a0823160e01b815230600482015290516001600160a01b03948516949093169261156b9285928792611566926001600160701b03169185916370a0823191602480820192602092909190829003018186803b15801561152e57600080fd5b505afa158015611542573d6000803e3d6000fd5b505050506040513d602081101561155857600080fd5b50519063ffffffff611c4b16565b611a4e565b600854604080516370a0823160e01b815230600482015290516115d2928492879261156692600160701b90046001600160701b0316916001600160a01b038616916370a0823191602480820192602092909190829003018186803b15801561152e57600080fd5b50506001600d5550565b6005546001600160a01b031681565b6007546001600160a01b031681565b42841015611646576040805162461bcd60e51b815260206004820152601460248201527311161cddd85c115490cc8c0e881156141254915160621b604482015290519081900360640190fd5b6003546001600160a01b0380891660008181526004602090815260408083208054600180820190925582517f6e71edae12b1b97f4d1f60370fef10105fa2faae0126114a169c64845d6126c98186015280840196909652958d166060860152608085018c905260a085019590955260c08085018b90528151808603909101815260e08501825280519083012061190160f01b6101008601526101028501969096526101228085019690965280518085039096018652610142840180825286519683019690962095839052610162840180825286905260ff89166101828501526101a284018890526101c28401879052519193926101e280820193601f1981019281900390910190855afa158015611761573d6000803e3d6000fd5b5050604051601f1901519150506001600160a01b038116158015906117975750886001600160a01b0316816001600160a01b0316145b6117e8576040805162461bcd60e51b815260206004820152601e60248201527f44587377617045524332303a20494e56414c49445f5349474e41545552450000604482015290519081900360640190fd5b6117f3898989611e61565b505050505050505050565b6005546001600160a01b03163314611855576040805162461bcd60e51b8152602060048201526015602482015274222c39bbb0b82830b4b91d102327a92124a22222a760591b604482015290519081900360640190fd5b6103e88163ffffffff1611156118b2576040805162461bcd60e51b815260206004820152601960248201527f445873776170506169723a20464f5242494444454e5f46454500000000000000604482015290519081900360640190fd5b600c805463ffffffff191663ffffffff92909216919091179055565b600260209081526000928352604080842090915290825290205481565b600d54600114611937576040805162461bcd60e51b815260206004820152601260248201527111161cddd85c14185a5c8e881313d0d2d15160721b604482015290519081900360640190fd5b6000600d55600654604080516370a0823160e01b81523060048201529051611a47926001600160a01b0316916370a08231916024808301926020929190829003018186803b15801561198857600080fd5b505afa15801561199c573d6000803e3d6000fd5b505050506040513d60208110156119b257600080fd5b5051600754604080516370a0823160e01b815230600482015290516001600160a01b03909216916370a0823191602480820192602092909190829003018186803b1580156119ff57600080fd5b505afa158015611a13573d6000803e3d6000fd5b505050506040513d6020811015611a2957600080fd5b50516008546001600160701b0380821691600160701b900416611c9b565b6001600d55565b604080518082018252601981527f7472616e7366657228616464726573732c75696e74323536290000000000000060209182015281516001600160a01b0385811660248301526044808301869052845180840390910181526064909201845291810180516001600160e01b031663a9059cbb60e01b1781529251815160009460609489169392918291908083835b60208310611afb5780518252601f199092019160209182019101611adc565b6001836020036101000a0380198251168184511680821785525050505050509050019150506000604051808303816000865af19150503d8060008114611b5d576040519150601f19603f3d011682016040523d82523d6000602084013e611b62565b606091505b5091509150818015611b90575080511580611b905750808060200190516020811015611b8d57600080fd5b50515b611be1576040805162461bcd60e51b815260206004820152601b60248201527f445873776170506169723a205452414e534645525f4641494c45440000000000604482015290519081900360640190fd5b5050505050565b6000811580611c0357505080820282828281611c0057fe5b04145b610beb576040805162461bcd60e51b815260206004820152601460248201527364732d6d6174682d6d756c2d6f766572666c6f7760601b604482015290519081900360640190fd5b80820382811115610beb576040805162461bcd60e51b815260206004820152601560248201527464732d6d6174682d7375622d756e646572666c6f7760581b604482015290519081900360640190fd5b6001600160701b038411801590611cb957506001600160701b038311155b611d01576040805162461bcd60e51b8152602060048201526014602482015273445873776170506169723a204f564552464c4f5760601b604482015290519081900360640190fd5b60085463ffffffff42811691600160e01b90048116820390811615801590611d3157506001600160701b03841615155b8015611d4557506001600160701b03831615155b15611db6578063ffffffff16611d7385611d5e866122f3565b6001600160e01b03169063ffffffff61230516565b600980546001600160e01b03929092169290920201905563ffffffff8116611d9e84611d5e876122f3565b600a80546001600160e01b0392909216929092020190555b600880546dffffffffffffffffffffffffffff19166001600160701b03888116919091176dffffffffffffffffffffffffffff60701b1916600160701b8883168102919091176001600160e01b0316600160e01b63ffffffff871602179283905560408051848416815291909304909116602082015281517f1c411e9a96e071241c2f21f7726b17ae89e3cab4c78be50e062b03a9fffbbad1929181900390910190a1505050505050565b6001600160a01b03808416600081815260026020908152604080832094871680845294825291829020859055815185815291517f8c5be1e5ebec7d5bd14f71427d1e84f3dd0314c0f7b2291e5b200ac8c7c3b9259281900390910190a3505050565b6001600160a01b038316600090815260016020526040902054611eec908263ffffffff611c4b16565b6001600160a01b038085166000908152600160205260408082209390935590841681522054611f21908263ffffffff61232a16565b6001600160a01b0380841660008181526001602090815260409182902094909455805185815290519193928716927fddf252ad1be2c89b69c2b068fc378daa952ba7f163c4a11628f55a4df523b3ef92918290030190a3505050565b600080600560009054906101000a90046001600160a01b03166001600160a01b031663017e7e586040518163ffffffff1660e01b815260040160206040518083038186803b158015611fce57600080fd5b505afa158015611fe2573d6000803e3d6000fd5b505050506040513d6020811015611ff857600080fd5b5051600554604080516317fb821560e11b815290519293506000926001600160a01b0390921691632ff7042a91600480820192602092909190829003018186803b15801561204557600080fd5b505afa158015612059573d6000803e3d6000fd5b505050506040513d602081101561206f57600080fd5b5051600b546001600160a01b03841615801595509192509061214057801561213b5760006120b2610f336001600160701b0389811690891663ffffffff611be816565b905060006120bf83612155565b9050808211156121385760006120ed6120de848463ffffffff611c4b16565b6000549063ffffffff611be816565b90506000612114836121088660ff8a1663ffffffff611be816565b9063ffffffff61232a16565b9050600081838161212157fe5b04905080156121345761213488826121a7565b5050505b50505b61214c565b801561214c576000600b555b50505092915050565b60006003821115612198575080600160028204015b818110156121925780915060028182858161218157fe5b04018161218a57fe5b04905061216a565b506121a2565b81156121a2575060015b919050565b6000546121ba908263ffffffff61232a16565b60009081556001600160a01b0383168152600160205260409020546121e5908263ffffffff61232a16565b6001600160a01b03831660008181526001602090815260408083209490945583518581529351929391927fddf252ad1be2c89b69c2b068fc378daa952ba7f163c4a11628f55a4df523b3ef9281900390910190a35050565b600081831061224c578161224e565b825b9392505050565b6001600160a01b03821660009081526001602052604090205461227e908263ffffffff611c4b16565b6001600160a01b038316600090815260016020526040812091909155546122ab908263ffffffff611c4b16565b60009081556040805183815290516001600160a01b038516917fddf252ad1be2c89b69c2b068fc378daa952ba7f163c4a11628f55a4df523b3ef919081900360200190a35050565b6001600160701b0316600160701b0290565b60006001600160701b0382166001600160e01b0384168161232257fe5b049392505050565b80820182811015610beb576040805162461bcd60e51b815260206004820152601460248201527364732d6d6174682d6164642d6f766572666c6f7760601b604482015290519081900360640190fdfe445873776170506169723a20494e53554646494349454e545f4c49515549444954595f4d494e544544445873776170506169723a20494e53554646494349454e545f4c4951554944495459445873776170506169723a20494e53554646494349454e545f4f55545055545f414d4f554e54445873776170506169723a20494e53554646494349454e545f494e5055545f414d4f554e54445873776170506169723a20494e53554646494349454e545f4c49515549444954595f4255524e4544a265627a7a72315820ea040d375d935ee0be0e1116ee1029ac0c6e5eaf60bd1cae0a47a87ed3662c6f64736f6c63430005100032454950373132446f6d61696e28737472696e67206e616d652c737472696e672076657273696f6e2c75696e7432353620636861696e49642c6164647265737320766572696679696e67436f6e747261637429445873776170466163746f72793a204944454e544943414c5f414444524553534553a265627a7a7231582082b8bf60da24d262f3f4791bd8810d598ddb996314c2b38347a495b7f392821064736f6c634300051000324458737761704465706c6f7965723a2043414c4c45525f4e4f545f4645455f544f5f534554544552a265627a7a72315820b965ad14cf8d5b4d0b85da6a8c38c53c9814cd88cfe21f6c11c9ef0b994ebf8a64736f6c63430005100032",
  "compiler": {
    "name": "solc",
    "version": "0.5.16+commit.9c3226ce.Linux.g++",
    "optimizer": {
      "enabled": true,
      "runs": 200
    },
    "evmVersion": "istanbul"
  }
}