{
  "fileName": "DXswapPair.sol",
  "contractName": "DXswapPair",
  "source": "pragma solidity =0.5.16;\n\nimport './interfaces/IDXswapPair.sol';\nimport './DXswapERC20.sol';\nimport './libraries/Math.sol';\nimport './libraries/UQ112x112.sol';\nimport './interfaces/IERC20.sol';\nimport './interfaces/IDXswapFactory.sol';\nimport './interfaces/IDXswapCallee.sol';\n\ncontract DXswapPair is IDXswapPair, DXswapERC20 {\n    using SafeMath  for uint;\n    using UQ112x112 for uint224;\n\n    uint public constant MINIMUM_LIQUIDITY = 10**3;\n    bytes4 private constant SELECTOR = bytes4(keccak256(bytes('transfer(address,uint256)')));\n\n    address public factory;\n    address public token0;\n    address public token1;\n\n    uint112 private reserve0;           // uses single storage slot, accessible via getReserves\n    uint112 private reserve1;           // uses single storage slot, accessible via getReserves\n    uint32  private blockTimestampLast; // uses single storage slot, accessible via getReserves\n\n    uint public price0CumulativeLast;\n    uint public price1CumulativeLast;\n    uint public kLast; // reserve0 * reserve1, as of immediately after the most recent liquidity event\n    uint32 public swapFee = 25; // uses 0.25% fee as default\n    \n    uint private unlocked = 1;\n    modifier lock() {\n        require(unlocked == 1, 'DXswapPair: LOCKED');\n        unlocked = 0;\n        _;\n        unlocked = 1;\n    }\n\n    function getReserves() public view returns (uint112 _reserve0, uint112 _reserve1, uint32 _blockTimestampLast) {\n        _reserve0 = reserve0;\n        _reserve1 = reserve1;\n        _blockTimestampLast = blockTimestampLast;\n    }\n\n    function _safeTransfer(address token, address to, uint value) private {\n        (bool success, bytes memory data) = token.call(abi.encodeWithSelector(SELECTOR, to, value));\n        require(success && (data.length == 0 || abi.decode(data, (bool))), 'DXswapPair: TRANSFER_FAILED');\n    }\n\n    event Mint(address indexed sender, uint amount0, uint amount1);\n    event Burn(address indexed sender, uint amount0, uint amount1, address indexed to);\n    event Swap(\n        address indexed sender,\n        uint amount0In,\n        uint amount1In,\n        uint amount0Out,\n        uint amount1Out,\n        address indexed to\n    );\n    event Sync(uint112 reserve0, uint112 reserve1);\n\n    constructor() public {\n        factory = msg.sender;\n    }\n\n    // called once by the factory at time of deployment\n    function initialize(address _token0, address _token1) external {\n        require(msg.sender == factory, 'DXswapPair: FORBIDDEN'); // sufficient check\n        token0 = _token0;\n        token1 = _token1;\n    }\n    \n    // called by the factory to set the swapFee\n    function setSwapFee(uint32 _swapFee) external {\n        require(msg.sender == factory, 'DXswapPair: FORBIDDEN'); // sufficient check\n        require(_swapFee <= 1000, 'DXswapPair: FORBIDDEN_FEE'); // fee percentage check\n        swapFee = _swapFee;\n    }\n\n    // update reserves and, on the first call per block, price accumulators\n    function _update(uint balance0, uint balance1, uint112 _reserve0, uint112 _reserve1) private {\n        require(balance0 <= uint112(-1) && balance1 <= uint112(-1), 'DXswapPair: OVERFLOW');\n        uint32 blockTimestamp = uint32(block.timestamp % 2**32);\n        uint32 timeElapsed = blockTimestamp - blockTimestampLast; // overflow is desired\n        if (timeElapsed > 0 && _reserve0 != 0 && _reserve1 != 0) {\n            // * never overflows, and + overflow is desired\n            price0CumulativeLast += uint(UQ112x112.encode(_reserve1).uqdiv(_reserve0)) * timeElapsed;\n            price1CumulativeLast += uint(UQ112x112.encode(_reserve0).uqdiv(_reserve1)) * timeElapsed;\n        }\n        reserve0 = uint112(balance0);\n        reserve1 = uint112(balance1);\n        blockTimestampLast = blockTimestamp;\n        emit Sync(reserve0, reserve1);\n    }\n\n    // if fee is on, mint liquidity equivalent to 1/ (protocolFeeDenominator + ~1) share of the growth in sqrt(k)\n    function _mintFee(uint112 _reserve0, uint112 _reserve1) private returns (bool feeOn) {\n        address feeTo = IDXswapFactory(factory).feeTo();\n        uint8 protocolFeeDenominator = IDXswapFactory(factory).protocolFeeDenominator();\n        feeOn = feeTo != address(0);\n        uint _kLast = kLast; // gas savings\n        if (feeOn) {\n            if (_kLast != 0) {\n                uint rootK = Math.sqrt(uint(_reserve0).mul(_reserve1));\n                uint rootKLast = Math.sqrt(_kLast);\n                if (rootK > rootKLast) {\n                    uint numerator = totalSupply.mul(rootK.sub(rootKLast));\n                    uint denominator = rootK.mul(protocolFeeDenominator).add(rootKLast);\n                    uint liquidity = numerator / denominator;\n                    if (liquidity > 0) _mint(feeTo, liquidity);\n                }\n            }\n        } else if (_kLast != 0) {\n            kLast = 0;\n        }\n    }\n\n    // this low-level function should be called from a contract which performs important safety checks\n    function mint(address to) external lock returns (uint liquidity) {\n        (uint112 _reserve0, uint112 _reserve1,) = getReserves(); // gas savings\n        uint balance0 = IERC20(token0).balanceOf(address(this));\n        uint balance1 = IERC20(token1).balanceOf(address(this));\n        uint amount0 = balance0.sub(_reserve0);\n        uint amount1 = balance1.sub(_reserve1);\n\n        bool feeOn = _mintFee(_reserve0, _reserve1);\n        uint _totalSupply = totalSupply; // gas savings, must be defined here since totalSupply can update in _mintFee\n        if (_totalSupply == 0) {\n            liquidity = Math.sqrt(amount0.mul(amount1)).sub(MINIMUM_LIQUIDITY);\n           _mint(address(0), MINIMUM_LIQUIDITY); // permanently lock the first MINIMUM_LIQUIDITY tokens\n        } else {\n            liquidity = Math.min(amount0.mul(_totalSupply) / _reserve0, amount1.mul(_totalSupply) / _reserve1);\n        }\n        require(liquidity > 0, 'DXswapPair: INSUFFICIENT_LIQUIDITY_MINTED');\n        _mint(to, liquidity);\n\n        _update(balance0, balance1, _reserve0, _reserve1);\n        if (feeOn) kLast = uint(reserve0).mul(reserve1); // reserve0 and reserve1 are up-to-date\n        emit Mint(msg.sender, amount0, amount1);\n    }\n\n    // this low-level function should be called from a contract which performs important safety checks\n    function burn(address to) external lock returns (uint amount0, uint amount1) {\n        (uint112 _reserve0, uint112 _reserve1,) = getReserves(); // gas savings\n        address _token0 = token0;                                // gas savings\n        address _token1 = token1;                                // gas savings\n        uint balance0 = IERC20(_token0).balanceOf(address(this));\n        uint balance1 = IERC20(_token1).balanceOf(address(this));\n        uint liquidity = balanceOf[address(this)];\n\n        bool feeOn = _mintFee(_reserve0, _reserve1);\n        uint _totalSupply = totalSupply; // gas savings, must be defined here since totalSupply can update in _mintFee\n        amount0 = liquidity.mul(balance0) / _totalSupply; // using balances ensures pro-rata distribution\n        amount1 = liquidity.mul(balance1) / _totalSupply; // using balances ensures pro-rata distribution\n        require(amount0 > 0 && amount1 > 0, 'DXswapPair: INSUFFICIENT_LIQUIDITY_BURNED');\n        _burn(address(this), liquidity);\n        _safeTransfer(_token0, to, amount0);\n        _safeTransfer(_token1, to, amount1);\n        balance0 = IERC20(_token0).balanceOf(address(this));\n        balance1 = IERC20(_token1).balanceOf(address(this));\n\n        _update(balance0, balance1, _reserve0, _reserve1);\n        if (feeOn) kLast = uint(reserve0).mul(reserve1); // reserve0 and reserve1 are up-to-date\n        emit Burn(msg.sender, amount0, amount1, to);\n    }\n\n    // this low-level function should be called from a contract which performs important safety checks\n    function swap(uint amount0Out, uint amount1Out, address to, bytes calldata data) external lock {\n        require(amount0Out > 0 || amount1Out > 0, 'DXswapPair: INSUFFICIENT_OUTPUT_AMOUNT');\n        (uint112 _reserve0, uint112 _reserve1,) = getReserves(); // gas savings\n        require(amount0Out < _reserve0 && amount1Out < _reserve1, 'DXswapPair: INSUFFICIENT_LIQUIDITY');\n\n        uint balance0;\n        uint balance1;\n        { // scope for _token{0,1}, avoids stack too deep errors\n        address _token0 = token0;\n        address _token1 = token1;\n        require(to != _token0 && to != _token1, 'DXswapPair: INVALID_TO');\n        if (amount0Out > 0) _safeTransfer(_token0, to, amount0Out); // optimistically transfer tokens\n        if (amount1Out > 0) _safeTransfer(_token1, to, amount1Out); // optimistically transfer tokens\n        if (data.length > 0) IDXswapCallee(to).DXswapCall(msg.sender, amount0Out, amount1Out, data);\n        balance0 = IERC20(_token0).balanceOf(address(this));\n        balance1 = IERC20(_token1).balanceOf(address(this));\n        }\n        uint amount0In = balance0 > _reserve0 - amount0Out ? balance0 - (_reserve0 - amount0Out) : 0;\n        uint amount1In = balance1 > _reserve1 - amount1Out ? balance1 - (_reserve1 - amount1Out) : 0;\n        require(amount0In > 0 || amount1In > 0, 'DXswapPair: INSUFFICIENT_INPUT_AMOUNT');\n        { // scope for reserve{0,1}Adjusted, avoids stack too deep errors\n        if (swapFee > 0) {\n          uint balance0Adjusted = balance0.mul(10000).sub(amount0In.mul(swapFee));\n          uint balance1Adjusted = balance1.mul(10000).sub(amount1In.mul(swapFee));\n          require(balance0Adjusted.mul(balance1Adjusted) >= uint(_reserve0).mul(_reserve1).mul(10000**2), 'DXswapPair: K');\n        }\n        }\n\n        _update(balance0, balance1, _reserve0, _reserve1);\n        emit Swap(msg.sender, amount0In, amount1In, amount0Out, amount1Out, to);\n    }\n\n    // force balances to match reserves\n    function skim(address to) external lock {\n        address _token0 = token0; // gas savings\n        address _token1 = token1; // gas savings\n        _safeTransfer(_token0, to, IERC20(_token0).balanceOf(address(this)).sub(reserve0));\n        _safeTransfer(_token1, to, IERC20(_token1).balanceOf(address(this)).sub(reserve1));\n    }\n\n    // force reserves to match balances\n    function sync() external lock {\n        _update(IERC20(token0).balanceOf(address(this)), IERC20(token1).balanceOf(address(this)), reserve0, reserve1);\n    }\n}\n",
  "sourcePath": "contracts/DXswapPair.sol",
  "abi": [
    {
      "inputs": [],
      "payable": false,
      "stateMutability": "nonpayable",
      "type": "constructor"
    },
    {
      "anonymous": false,
      "inputs": [
        {
          "indexed": true,
          "internalType": "address",
          "name": "owner",
          "type": "address"
        },
        {
          "indexed": true,
          "internalType": "address",
          "name": "spender",
          "type": "address"
        },
        {
          "indexed": false,
          "internalType": "uint256",
          "name": "value",
          "type": "uint256"
        }
      ],
      "name": "Approval",
      "type": "event"
    },
    {
      "anonymous": false,
      "inputs": [
        {
          "indexed": true,
          "internalType": "address",
          "name": "sender",
          "type": "address"
        },
        {
          "indexed": false,
          "internalType": "uint256",
          "name": "amount0",
          "type": "uint256"
        },
        {
          "indexed": false,
          "internalType": "uint256",
          "name": "amount1",
          "type": "uint256"
        },
        {
          "indexed": true,
          "internalType": "address",
          "name": "to",
          "type": "address"
        }
      ],
      "name": "Burn",
      "type": "event"
    },
    {
      "anonymous": false,
      "inputs": [
        {
          "indexed": true,
          "internalType": "address",
          "name": "sender",
          "type": "address"
        },
        {
          "indexed": false,
          "internalType": "uint256",
          "name": "amount0",
          "type": "uint256"
        },
        {
          "indexed": false,
          "internalType": "uint256",
          "name": "amount1",
          "type": "uint256"
        }
      ],
      "name": "Mint",
      "type": "event"
    },
    {
      "anonymous": false,
      "inputs": [
        {
          "indexed": true,
          "internalType": "address",
          "name": "sender",
          "type": "address"
        },
        {
          "indexed": false,
          "internalType": "uint256",
          "name": "amount0In",
          "type": "uint256"
        },
        {
          "indexed": false,
          "internalType": "uint256",
          "name": "amount1In",
          "type": "uint256"
        },
        {
          "indexed": false,
          "internalType": "uint256",
          "name": "amount0Out",
          "type": "uint256"
        },
        {
          "indexed": false,
          "internalType": "uint256",
          "name": "amount1Out",
          "type": "uint256"
        },
        {
          "indexed": true,
          "internalType": "address",
          "name": "to",
          "type": "address"
        }
      ],
      "name": "Swap",
      "type": "event"
    },
    {
      "anonymous": false,
      "inputs": [
        {
          "indexed": false,
          "internalType": "uint112",
          "name": "reserve0",
          "type": "uint112"
        },
        {
          "indexed": false,
          "internalType": "uint112",
          "name": "reserve1",
          "type": "uint112"
        }
      ],
      "name": "Sync",
      "type": "event"
    },
    {
      "anonymous": false,
      "inputs": [
        {
          "indexed": true,
          "internalType": "address",
          "name": "from",
          "type": "address"
        },
        {
          "indexed": true,
          "internalType": "address",
          "name": "to",
          "type": "address"
        },
        {
          "indexed": false,
          "internalType": "uint256",
          "name": "value",
          "type": "uint256"
        }
      ],
      "name": "Transfer",
      "type": "event"
    },
    {
      "constant": true,
      "inputs": [],
      "name": "DOMAIN_SEPARATOR",
      "outputs": [
        {
          "internalType": "bytes32",
          "name": "",
          "type": "bytes32"
        }
      ],
      "payable": false,
      "stateMutability": "view",
      "type": "function"
    },
    {
      "constant": true,
      "inputs": [],
      "name": "MINIMUM_LIQUIDITY",
      "outputs": [
        {
          "internalType": "uint256",
          "name": "",
          "type": "uint256"
        }
      ],
      "payable": false,
      "stateMutability": "view",
      "type": "function"
    },
    {
      "constant": true,
      "inputs": [],
      "name": "PERMIT_TYPEHASH",
      "outputs": [
        {
          "internalType": "bytes32",
          "name": "",
          "type": "bytes32"
        }
      ],
      "payable": false,
      "stateMutability": "view",
      "type": "function"
    },
    {
      "constant": true,
      "inputs": [
        {
          "internalType": "address",
          "name": "",
          "type": "address"
        },
        {
          "internalType": "address",
          "name": "",
          "type": "address"
        }
      ],
      "name": "allowance",
      "outputs": [
        {
          "internalType": "uint256",
          "name": "",
          "type": "uint256"
        }
      ],
      "payable": false,
      "stateMutability": "view",
      "type": "function"
    },
    {
      "constant": false,
      "inputs": [
        {
          "internalType": "address",
          "name": "spender",
          "type": "address"
        },
        {
          "internalType": "uint256",
          "name": "value",
          "type": "uint256"
        }
      ],
      "name": "approve",
      "outputs": [
        {
          "internalType": "bool",
          "name": "",
          "type": "bool"
        }
      ],
      "payable": false,
      "stateMutability": "nonpayable",
      "type": "function"
    },
    {
      "constant": true,
      "inputs": [
        {
          "internalType": "address",
          "name": "",
          "type": "address"
        }
      ],
      "name": "balanceOf",
      "outputs": [
        {
          "internalType": "uint256",
          "name": "",
          "type": "uint256"
        }
      ],
      "payable": false,
      "stateMutability": "view",
      "type": "function"
    },
    {
      "constant": false,
      "inputs": [
        {
          "internalType": "address",
          "name": "to",
          "type": "address"
        }
      ],
      "name": "burn",
      "outputs": [
        {
          "internalType": "uint256",
          "name": "amount0",
          "type": "uint256"
        },
        {
          "internalType": "uint256",
          "name": "amount1",
          "type": "uint256"
        }
      ],
      "payable": false,
      "stateMutability": "nonpayable",
      "type": "function"
    },
    {
      "constant": true,
      "inputs": [],
      "name": "decimals",
      "outputs": [
        {
          "internalType": "uint8",
          "name": "",
          "type": "uint8"
        }
      ],
      "payable": false,
      "stateMutability": "view",
      "type": "function"
    },
    {
      "constant": true,
      "inputs": [],
      "name": "factory",
      "outputs": [
        {
          "internalType": "address",
          "name": "",
          "type": "address"
        }
      ],
      "payable": false,
      "stateMutability": "view",
      "type": "function"
    },
    {
      "constant": true,
      "inputs": [],
      "name": "getReserves",
      "outputs": [
        {
          "internalType": "uint112",
          "name": "_reserve0",
          "type": "uint112"
        },
        {
          "internalType": "uint112",
          "name": "_reserve1",
          "type": "uint112"
        },
        {
          "internalType": "uint32",
          "name": "_blockTimestampLast",
          "type": "uint32"
        }
      ],
      "payable": false,
      "stateMutability": "view",
      "type": "function"
    },
    {
      "constant": false,
      "inputs": [
        {
          "internalType": "address",
          "name": "_token0",
          "type": "address"
        },
        {
          "internalType": "address",
          "name": "_token1",
          "type": "address"
        }
      ],
      "name": "initialize",
      "outputs": [],
      "payable": false,
      "stateMutability": "nonpayable",
      "type": "function"
    },
    {
      "constant": true,
      "inputs": [],
      "name": "kLast",
      "outputs": [
        {
          "internalType": "uint256",
          "name": "",
          "type": "uint256"
        }
      ],
      "payable": false,
      "stateMutability": "view",
      "type": "function"
    },
    {
      "constant": false,
      "inputs": [
        {
          "internalType": "address",
          "name": "to",
          "type": "address"
        }
      ],
      "name": "mint",
      "outputs": [
        {
          "internalType": "uint256",
          "name": "liquidity",
          "type": "uint256"
        }
      ],
      "payable": false,
      "stateMutability": "nonpayable",
      "type": "function"
    },
    {
      "constant": true,
      "inputs": [],
      "name": "name",
      "outputs": [
        {
          "internalType": "string",
          "name": "",
          "type": "string"
        }
      ],
      "payable": false,
      "stateMutability": "view",
      "type": "function"
    },
    {
      "constant": true,
      "inputs": [
        {
          "internalType": "address",
          "name": "",
          "type": "address"
        }
      ],
      "name": "nonces",
      "outputs": [
        {
          "internalType": "uint256",
          "name": "",
          "type": "uint256"
        }
      ],
      "payable": false,
      "stateMutability": "view",
      "type": "function"
    },
    {
      "constant": false,
      "inputs": [
        {
          "internalType": "address",
          "name": "owner",
          "type": "address"
        },
        {
          "internalType": "address",
          "name": "spender",
          "type": "address"
        },
        {
          "internalType": "uint256",
          "name": "value",
          "type": "uint256"
        },
        {
          "internalType": "uint256",
          "name": "deadline",
          "type": "uint256"
        },
        {
          "internalType": "uint8",
          "name": "v",
          "type": "uint8"
        },
        {
          "internalType": "bytes32",
          "name": "r",
          "type": "bytes32"
        },
        {
          "internalType": "bytes32",
          "name": "s",
          "type": "bytes32"
        }
      ],
      "name": "permit",
      "outputs": [],
      "payable": false,
      "stateMutability": "nonpayable",
      "type": "function"
    },
    {
      "constant": true,
      "inputs": [],
      "name": "price0CumulativeLast",
      "outputs": [
        {
          "internalType": "uint256",
          "name": "",
          "type": "uint256"
        }
      ],
      "payable": false,
      "stateMutability": "view",
      "type": "function"
    },
    {
      "constant": true,
      "inputs": [],
      "name": "price1CumulativeLast",
      "outputs": [
        {
          "internalType": "uint256",
          "name": "",
          "type": "uint256"
        }
      ],
      "payable": false,
      "stateMutability": "view",
      "type": "function"
    },
    {
      "constant": false,
      "inputs": [
        {
          "internalType": "uint32",
          "name": "_swapFee",
          "type": "uint32"
        }
      ],
      "name": "setSwapFee",
      "outputs": [],
      "payable": false,
      "stateMutability": "nonpayable",
      "type": "function"
    },
    {
      "constant": false,
      "inputs": [
        {
          "internalType": "address",
          "name": "to",
          "type": "address"
        }
      ],
      "name": "skim",
      "outputs": [],
      "payable": false,
      "stateMutability": "nonpayable",
      "type": "function"
    },
    {
      "constant": false,
      "inputs": [
        {
          "internalType": "uint256",
          "name": "amount0Out",
          "type": "uint256"
        },
        {
          "internalType": "uint256",
          "name": "amount1Out",
          "type": "uint256"
        },
        {
          "internalType": "address",
          "name": "to",
          "type": "address"
        },
        {
          "internalType": "bytes",
          "name": "data",
          "type": "bytes"
        }
      ],
      "name": "swap",
      "outputs": [],
      "payable": false,
      "stateMutability": "nonpayable",
      "type": "function"
    },
    {
      "constant": true,
      "inputs": [],
      "name": "swapFee",
      "outputs": [
        {
          "internalType": "uint32",
          "name": "",
          "type": "uint32"
        }
      ],
      "payable": false,
      "stateMutability": "view",
      "type": "function"
    },
    {
      "constant": true,
      "inputs": [],
      "name": "symbol",
      "outputs": [
        {
          "internalType": "string",
          "name": "",
          "type": "string"
        }
      ],
      "payable": false,
      "stateMutability": "view",
      "type": "function"
    },
    {
      "constant": false,
      "inputs": [],
      "name": "sync",
      "outputs": [],
      "payable": false,
      "stateMutability": "nonpayable",
      "type": "function"
    },
    {
      "constant": true,
      "inputs": [],
      "name": "token0",
      "outputs": [
        {
          "internalType": "address",
          "name": "",
          "type": "address"
        }
      ],
      "payable": false,
      "stateMutability": "view",
      "type": "function"
    },
    {
      "constant": true,
      "inputs": [],
      "name": "token1",
      "outputs": [
        {
          "internalType": "address",
          "name": "",
          "type": "address"
        }
      ],
      "payable": false,
      "stateMutability": "view",
      "type": "function"
    },
    {
      "constant": true,
      "inputs": [],
      "name": "totalSupply",
      "outputs": [
        {
          "internalType": "uint256",
          "name": "",
          "type": "uint256"
        }
      ],
      "payable": false,
      "stateMutability": "view",
      "type": "function"
    },
    {
      "constant": false,
      "inputs": [
        {
          "internalType": "address",
          "name": "to",
          "type": "address"
        },
        {
          "internalType": "uint256",
          "name": "value",
          "type": "uint256"
        }
      ],
      "name": "transfer",
      "outputs": [
        {
          "internalType": "bool",
          "name": "",
          "type": "bool"
        }
      ],
      "payable": false,
      "stateMutability": "nonpayable",
      "type": "function"
    },
    {
      "constant": false,
      "inputs": [
        {
          "internalType": "address",
          "name": "from",
          "type": "address"
        },
        {
          "internalType": "address",
          "name": "to",
          "type": "address"
        },
        {
          "internalType": "uint256",
          "name": "value",
          "type": "uint256"
        }
      ],
      "name": "transferFrom",
      "outputs": [
        {
          "internalType": "bool",
          "name": "",
          "type": "bool"
        }
      ],
      "payable": false,
      "stateMutability": "nonpayable",
      "type": "function"
    }
  ],
  "bytecode": "0x6080604052600c805463ffffffff191660191790556001600d5534801561002557600080fd5b50604051469080605261257e8239604080519182900360520182208282018252600683526504458737761760d41b6020938401528151808301835260018152603160f81b908401528151808401919091527f3649d708a7abf9e212d0a587955ead4123223014b2e46201dfb587457cbd4591818301527fc89efdaa54c0f20c7adf612882df0950f5a951637e0307cdcb4c672f298b8bc6606082015260808101949094523060a0808601919091528151808603909101815260c09094019052825192019190912060035550600580546001600160a01b0319163317905561246d806101116000396000f3fe608060405234801561001057600080fd5b50600436106101cf5760003560e01c80636a62784211610104578063ba9a7a56116100a2578063d505accf11610071578063d505accf14610583578063d6d788c3146105d4578063dd62ed3e146105f7578063fff6cae914610625576101cf565b8063ba9a7a5614610545578063bc25cf771461054d578063c45a015514610573578063d21220a71461057b576101cf565b80637ecebe00116100de5780637ecebe00146104ac57806389afcb44146104d257806395d89b4114610511578063a9059cbb14610519576101cf565b80636a6278421461045857806370a082311461047e5780637464fc3d146104a4576101cf565b806330adf81f11610171578063485cc9551161014b578063485cc955146103f957806354cf2aeb146104275780635909c0d5146104485780635a3d549314610450576101cf565b806330adf81f146103cb578063313ce567146103d35780633644e515146103f1576101cf565b8063095ea7b3116101ad578063095ea7b3146103175780630dfe16811461035757806318160ddd1461037b57806323b872dd14610395576101cf565b8063022c0d9f146101d457806306fdde03146102625780630902f1ac146102df575b600080fd5b610260600480360360808110156101ea57600080fd5b8135916020810135916001600160a01b03604083013516919081019060808101606082013564010000000081111561022157600080fd5b82018360208201111561023357600080fd5b8035906020019184600183028401116401000000008311171561025557600080fd5b50909250905061062d565b005b61026a610b8e565b6040805160208082528351818301528351919283929083019185019080838360005b838110156102a457818101518382015260200161028c565b50505050905090810190601f1680156102d15780820380516001836020036101000a031916815260200191505b509250505060405180910390f35b6102e7610bb0565b604080516001600160701b03948516815292909316602083015263ffffffff168183015290519081900360600190f35b6103436004803603604081101561032d57600080fd5b506001600160a01b038135169060200135610bda565b604080519115158252519081900360200190f35b61035f610bf1565b604080516001600160a01b039092168252519081900360200190f35b610383610c00565b60408051918252519081900360200190f35b610343600480360360608110156103ab57600080fd5b506001600160a01b03813581169160208101359091169060400135610c06565b610383610ca0565b6103db610cc4565b6040805160ff9092168252519081900360200190f35b610383610cc9565b6102606004803603604081101561040f57600080fd5b506001600160a01b0381358116916020013516610ccf565b61042f610d54565b6040805163ffffffff9092168252519081900360200190f35b610383610d60565b610383610d66565b6103836004803603602081101561046e57600080fd5b50356001600160a01b0316610d6c565b6103836004803603602081101561049457600080fd5b50356001600160a01b031661106d565b61038361107f565b610383600480360360208110156104c257600080fd5b50356001600160a01b0316611085565b6104f8600480360360208110156104e857600080fd5b50356001600160a01b0316611097565b6040805192835260208301919091528051918290030190f35b61026a61143e565b6103436004803603604081101561052f57600080fd5b506001600160a01b03813516906020013561145d565b61038361146a565b6102606004803603602081101561056357600080fd5b50356001600160a01b0316611470565b61035f6115dc565b61035f6115eb565b610260600480360360e081101561059957600080fd5b506001600160a01b03813581169160208101359091169060408101359060608101359060ff6080820135169060a08101359060c001356115fa565b610260600480360360208110156105ea57600080fd5b503563ffffffff166117fe565b6103836004803603604081101561060d57600080fd5b506001600160a01b03813581169160200135166118ce565b6102606118eb565b600d54600114610679576040805162461bcd60e51b815260206004820152601260248201527111161cddd85c14185a5c8e881313d0d2d15160721b604482015290519081900360640190fd5b6000600d558415158061068c5750600084115b6106c75760405162461bcd60e51b81526004018080602001828103825260268152602001806123c56026913960400191505060405180910390fd5b6000806106d2610bb0565b5091509150816001600160701b0316871080156106f75750806001600160701b031686105b6107325760405162461bcd60e51b81526004018080602001828103825260228152602001806123a36022913960400191505060405180910390fd5b60065460075460009182916001600160a01b039182169190811690891682148015906107705750806001600160a01b0316896001600160a01b031614155b6107ba576040805162461bcd60e51b8152602060048201526016602482015275445873776170506169723a20494e56414c49445f544f60501b604482015290519081900360640190fd5b8a156107cb576107cb828a8d611a4e565b89156107dc576107dc818a8c611a4e565b861561089757886001600160a01b03166378b94ae6338d8d8c8c6040518663ffffffff1660e01b815260040180866001600160a01b03166001600160a01b03168152602001858152602001848152602001806020018281038252848482818152602001925080828437600081840152601f19601f8201169050808301925050509650505050505050600060405180830381600087803b15801561087e57600080fd5b505af1158015610892573d6000803e3d6000fd5b505050505b604080516370a0823160e01b815230600482015290516001600160a01b038416916370a08231916024808301926020929190829003018186803b1580156108dd57600080fd5b505afa1580156108f1573d6000803e3d6000fd5b505050506040513d602081101561090757600080fd5b5051604080516370a0823160e01b815230600482015290519195506001600160a01b038316916370a0823191602480820192602092909190829003018186803b15801561095357600080fd5b505afa158015610967573d6000803e3d6000fd5b505050506040513d602081101561097d57600080fd5b5051925060009150506001600160701b0385168a900383116109a05760006109af565b89856001600160701b03160383035b9050600089856001600160701b03160383116109cc5760006109db565b89856001600160701b03160383035b905060008211806109ec5750600081115b610a275760405162461bcd60e51b81526004018080602001828103825260258152602001806123eb6025913960400191505060405180910390fd5b600c5463ffffffff1615610b1c57600c54600090610a7290610a5490859063ffffffff90811690611be816565b610a668761271063ffffffff611be816565b9063ffffffff611c4b16565b600c54909150600090610a9490610a5490859063ffffffff90811690611be816565b9050610ac66305f5e100610aba6001600160701b038b8116908b1663ffffffff611be816565b9063ffffffff611be816565b610ad6838363ffffffff611be816565b1015610b19576040805162461bcd60e51b815260206004820152600d60248201526c445873776170506169723a204b60981b604482015290519081900360640190fd5b50505b610b2884848888611c9b565b60408051838152602081018390528082018d9052606081018c905290516001600160a01b038b169133917fd78ad95fa46c994b6551d0da85fc275fe613ce37657fb8d5e3d130840159d8229181900360800190a350506001600d55505050505050505050565b6040518060400160405280600681526020016504458737761760d41b81525081565b6008546001600160701b0380821692600160701b830490911691600160e01b900463ffffffff1690565b6000610be7338484611e61565b5060015b92915050565b6006546001600160a01b031681565b60005481565b6001600160a01b038316600090815260026020908152604080832033845290915281205460001914610c8b576001600160a01b0384166000908152600260209081526040808320338452909152902054610c66908363ffffffff611c4b16565b6001600160a01b03851660009081526002602090815260408083203384529091529020555b610c96848484611ec3565b5060019392505050565b7f6e71edae12b1b97f4d1f60370fef10105fa2faae0126114a169c64845d6126c981565b601281565b60035481565b6005546001600160a01b03163314610d26576040805162461bcd60e51b8152602060048201526015602482015274222c39bbb0b82830b4b91d102327a92124a22222a760591b604482015290519081900360640190fd5b600680546001600160a01b039384166001600160a01b03199182161790915560078054929093169116179055565b600c5463ffffffff1681565b60095481565b600a5481565b6000600d54600114610dba576040805162461bcd60e51b815260206004820152601260248201527111161cddd85c14185a5c8e881313d0d2d15160721b604482015290519081900360640190fd5b6000600d81905580610dca610bb0565b50600654604080516370a0823160e01b815230600482015290519395509193506000926001600160a01b03909116916370a08231916024808301926020929190829003018186803b158015610e1e57600080fd5b505afa158015610e32573d6000803e3d6000fd5b505050506040513d6020811015610e4857600080fd5b5051600754604080516370a0823160e01b815230600482015290519293506000926001600160a01b03909216916370a0823191602480820192602092909190829003018186803b158015610e9b57600080fd5b505afa158015610eaf573d6000803e3d6000fd5b505050506040513d6020811015610ec557600080fd5b505190506000610ee4836001600160701b03871663ffffffff611c4b16565b90506000610f01836001600160701b03871663ffffffff611c4b16565b90506000610f0f8787611f7d565b60005490915080610f4c57610f386103e8610a66610f33878763ffffffff611be816565b612155565b9850610f4760006103e86121a7565b610f9b565b610f986001600160701b038916610f69868463ffffffff611be816565b81610f7057fe5b046001600160701b038916610f8b868563ffffffff611be816565b81610f9257fe5b0461223d565b98505b60008911610fda5760405162461bcd60e51b815260040180806020018281038252602981526020018061237a6029913960400191505060405180910390fd5b610fe48a8a6121a7565b610ff086868a8a611c9b565b81156110205760085461101c906001600160701b0380821691600160701b90041663ffffffff611be816565b600b555b6040805185815260208101859052815133927f4c209b5fc8ad50758f13e2e1088ba56a560dff690a1c6fef26394f4c03821c4f928290030190a250506001600d5550949695505050505050565b60016020526000908152604090205481565b600b5481565b60046020526000908152604090205481565b600080600d546001146110e6576040805162461bcd60e51b815260206004820152601260248201527111161cddd85c14185a5c8e881313d0d2d15160721b604482015290519081900360640190fd5b6000600d819055806110f6610bb0565b50600654600754604080516370a0823160e01b815230600482015290519496509294506001600160a01b039182169391169160009184916370a08231916024808301926020929190829003018186803b15801561115257600080fd5b505afa158015611166573d6000803e3d6000fd5b505050506040513d602081101561117c57600080fd5b5051604080516370a0823160e01b815230600482015290519192506000916001600160a01b038516916370a08231916024808301926020929190829003018186803b1580156111ca57600080fd5b505afa1580156111de573d6000803e3d6000fd5b505050506040513d60208110156111f457600080fd5b5051306000908152600160205260408120549192506112138888611f7d565b6000549091508061122a848763ffffffff611be816565b8161123157fe5b049a5080611245848663ffffffff611be816565b8161124c57fe5b04995060008b11801561125f575060008a115b61129a5760405162461bcd60e51b81526004018080602001828103825260298152602001806124106029913960400191505060405180910390fd5b6112a43084612255565b6112af878d8d611a4e565b6112ba868d8c611a4e565b604080516370a0823160e01b815230600482015290516001600160a01b038916916370a08231916024808301926020929190829003018186803b15801561130057600080fd5b505afa158015611314573d6000803e3d6000fd5b505050506040513d602081101561132a57600080fd5b5051604080516370a0823160e01b815230600482015290519196506001600160a01b038816916370a0823191602480820192602092909190829003018186803b15801561137657600080fd5b505afa15801561138a573d6000803e3d6000fd5b505050506040513d60208110156113a057600080fd5b505193506113b085858b8b611c9b565b81156113e0576008546113dc906001600160701b0380821691600160701b90041663ffffffff611be816565b600b555b604080518c8152602081018c905281516001600160a01b038f169233927fdccd412f0b1252819cb1fd330b93224ca42612892bb3f4f789976e6d81936496929081900390910190a35050505050505050506001600d81905550915091565b6040518060400160405280600381526020016244585360e81b81525081565b6000610be7338484611ec3565b6103e881565b600d546001146114bc576040805162461bcd60e51b815260206004820152601260248201527111161cddd85c14185a5c8e881313d0d2d15160721b604482015290519081900360640190fd5b6000600d55600654600754600854604080516370a0823160e01b815230600482015290516001600160a01b03948516949093169261156b9285928792611566926001600160701b03169185916370a0823191602480820192602092909190829003018186803b15801561152e57600080fd5b505afa158015611542573d6000803e3d6000fd5b505050506040513d602081101561155857600080fd5b50519063ffffffff611c4b16565b611a4e565b600854604080516370a0823160e01b815230600482015290516115d2928492879261156692600160701b90046001600160701b0316916001600160a01b038616916370a0823191602480820192602092909190829003018186803b15801561152e57600080fd5b50506001600d5550565b6005546001600160a01b031681565b6007546001600160a01b031681565b42841015611646576040805162461bcd60e51b815260206004820152601460248201527311161cddd85c115490cc8c0e881156141254915160621b604482015290519081900360640190fd5b6003546001600160a01b0380891660008181526004602090815260408083208054600180820190925582517f6e71edae12b1b97f4d1f60370fef10105fa2faae0126114a169c64845d6126c98186015280840196909652958d166060860152608085018c905260a085019590955260c08085018b90528151808603909101815260e08501825280519083012061190160f01b6101008601526101028501969096526101228085019690965280518085039096018652610142840180825286519683019690962095839052610162840180825286905260ff89166101828501526101a284018890526101c28401879052519193926101e280820193601f1981019281900390910190855afa158015611761573d6000803e3d6000fd5b5050604051601f1901519150506001600160a01b038116158015906117975750886001600160a01b0316816001600160a01b0316145b6117e8576040805162461bcd60e51b815260206004820152601e60248201527f44587377617045524332303a20494e56414c49445f5349474e41545552450000604482015290519081900360640190fd5b6117f3898989611e61565b505050505050505050565b6005546001600160a01b03163314611855576040805162461bcd60e51b8152602060048201526015602482015274222c39bbb0b82830b4b91d102327a92124a22222a760591b604482015290519081900360640190fd5b6103e88163ffffffff1611156118b2576040805162461bcd60e51b815260206004820152601960248201527f445873776170506169723a20464f5242494444454e5f46454500000000000000604482015290519081900360640190fd5b600c805463ffffffff191663ffffffff92909216919091179055565b600260209081526000928352604080842090915290825290205481565b600d54600114611937576040805162461bcd60e51b815260206004820152601260248201527111161cddd85c14185a5c8e881313d0d2d15160721b604482015290519081900360640190fd5b6000600d55600654604080516370a0823160e01b81523060048201529051611a47926001600160a01b0316916370a08231916024808301926020929190829003018186803b15801561198857600080fd5b505afa15801561199c573d6000803e3d6000fd5b505050506040513d60208110156119b257600080fd5b5051600754604080516370a0823160e01b815230600482015290516001600160a01b03909216916370a0823191602480820192602092909190829003018186803b1580156119ff57600080fd5b505afa158015611a13573d6000803e3d6000fd5b505050506040513d6020811015611a2957600080fd5b50516008546001600160701b0380821691600160701b900416611c9b565b6001600d55565b604080518082018252601981527f7472616e7366657228616464726573732c75696e74323536290000000000000060209182015281516001600160a01b0385811660248301526044808301869052845180840390910181526064909201845291810180516001600160e01b031663a9059cbb60e01b1781529251815160009460609489169392918291908083835b60208310611afb5780518252601f199092019160209182019101611adc565b6001836020036101000a0380198251168184511680821785525050505050509050019150506000604051808303816000865af19150503d8060008114611b5d576040519150601f19603f3d011682016040523d82523d6000602084013e611b62565b606091505b5091509150818015611b90575080511580611b905750808060200190516020811015611b8d57600080fd5b50515b611be1576040805162461bcd60e51b815260206004820152601b60248201527f445873776170506169723a205452414e534645525f4641494c45440000000000604482015290519081900360640190fd5b5050505050565b6000811580611c0357505080820282828281611c0057fe5b04145b610beb576040805162461bcd60e51b815260206004820152601460248201527364732d6d6174682d6d756c2d6f766572666c6f7760601b604482015290519081900360640190fd5b80820382811115610beb576040805162461bcd60e51b815260206004820152601560248201527464732d6d6174682d7375622d756e646572666c6f7760581b604482015290519081900360640190fd5b6001600160701b038411801590611cb957506001600160701b038311155b611d01576040805162461bcd60e51b8152602060048201526014602482015273445873776170506169723a204f564552464c4f5760601b604482015290519081900360640190fd5b60085463ffffffff42811691600160e01b90048116820390811615801590611d3157506001600160701b03841615155b8015611d4557506001600160701b03831615155b15611db6578063ffffffff16611d7385611d5e866122f3565b6001600160e01b03169063ffffffff61230516565b600980546001600160e01b03929092169290920201905563ffffffff8116611d9e84611d5e876122f3565b600a80546001600160e01b0392909216929092020190555b600880546dffffffffffffffffffffffffffff19166001600160701b03888116919091176dffffffffffffffffffffffffffff60701b1916600160701b8883168102919091176001600160e01b0316600160e01b63ffffffff871602179283905560408051848416815291909304909116602082015281517f1c411e9a96e071241c2f21f7726b17ae89e3cab4c78be50e062b03a9fffbbad1929181900390910190a1505050505050565b6001600160a01b03808416600081815260026020908152604080832094871680845294825291829020859055815185815291517f8c5be1e5ebec7d5bd14f71427d1e84f3dd0314c0f7b2291e5b200ac8c7c3b9259281900390910190a3505050565b6001600160a01b038316600090815260016020526040902054611eec908263ffffffff611c4b16565b6001600160a01b038085166000908152600160205260408082209390935590841681522054611f21908263ffffffff61232a16565b6001600160a01b0380841660008181526001602090815260409182902094909455805185815290519193928716927fddf252ad1be2c89b69c2b068fc378daa952ba7f163c4a11628f55a4df523b3ef92918290030190a3505050565b600080600560009054906101000a90046001600160a01b03166001600160a01b031663017e7e586040518163ffffffff1660e01b815260040160206040518083038186803b158015611fce57600080fd5b505afa158015611fe2573d6000803e3d6000fd5b505050506040513d6020811015611ff857600080fd5b5051600554604080516317fb821560e11b815290519293506000926001600160a01b0390921691632ff7042a91600480820192602092909190829003018186803b15801561204557600080fd5b505afa158015612059573d6000803e3d6000fd5b505050506040513d602081101561206f57600080fd5b5051600b546001600160a01b03841615801595509192509061214057801561213b5760006120b2610f336001600160701b0389811690891663ffffffff611be816565b905060006120bf83612155565b9050808211156121385760006120ed6120de848463ffffffff611c4b16565b6000549063ffffffff611be816565b90506000612114836121088660ff8a1663ffffffff611be816565b9063ffffffff61232a16565b9050600081838161212157fe5b04905080156121345761213488826121a7565b5050505b50505b61214c565b801561214c576000600b555b50505092915050565b60006003821115612198575080600160028204015b818110156121925780915060028182858161218157fe5b04018161218a57fe5b04905061216a565b506121a2565b81156121a2575060015b919050565b6000546121ba908263ffffffff61232a16565b60009081556001600160a01b0383168152600160205260409020546121e5908263ffffffff61232a16565b6001600160a01b03831660008181526001602090815260408083209490945583518581529351929391927fddf252ad1be2c89b69c2b068fc378daa952ba7f163c4a11628f55a4df523b3ef9281900390910190a35050565b600081831061224c578161224e565b825b9392505050565b6001600160a01b03821660009081526001602052604090205461227e908263ffffffff611c4b16565b6001600160a01b038316600090815260016020526040812091909155546122ab908263ffffffff611c4b16565b60009081556040805183815290516001600160a01b038516917fddf252ad1be2c89b69c2b068fc378daa952ba7f163c4a11628f55a4df523b3ef919081900360200190a35050565b6001600160701b0316600160701b0290565b60006001600160701b0382166001600160e01b0384168161232257fe5b049392505050565b80820182811015610beb576040805162461bcd60e51b815260206004820152601460248201527364732d6d6174682d6164642d6f766572666c6f7760601b604482015290519081900360640190fdfe445873776170506169723a20494e53554646494349454e545f4c49515549444954595f4d494e544544445873776170506169723a20494e53554646494349454e545f4c4951554944495459445873776170506169723a20494e53554646494349454e545f4f55545055545f414d4f554e54445873776170506169723a20494e53554646494349454e545f494e5055545f414d4f554e54445873776170506169723a20494e53554646494349454e545f4c49515549444954595f4255524e4544a265627a7a72315820ea040d375d935ee0be0e1116ee1029ac0c6e5eaf60bd1cae0a47a87ed3662c6f64736f6c63430005100032454950373132446f6d61696e28737472696e67206e616d652c737472696e672076657273696f6e2c75696e7432353620636861696e49642c6164647265737320766572696679696e67436f6e747261637429",
  "compiler": {
    "name": "solc",
    "version": "0.5.16+commit.9c3226ce.Linux.g++",
    "optimizer": {
      "enabled": true,
      "runs": 200
    },
    "evmVersion": "istanbul"
  }
}